:0400000081EF00F09C
:100008006148614861486148400061484000614872
:100018006148614861486148614861486148614890
:1000280061484000400040006148614861486148BB
:100038006148614861486148614861486148614870
:100048006148614861486148400040006148614832
:1000580061486148614840006148614861486148B9
:100068006148614861486148614861486148614840
:100078006148614861486148400061486148614899
:100088006148614861486148614861486148614820
:10009800614861486148614840006148400040004B
:1000A8006148614861486148614861486148614800
:1000B80061486148614861486148614861486148F0
:1000C80061486148614861486148614861486148E0
:1000D80061486148614861486148614861486148D0
:1000E80040006148614861484000400040004000CD
:0E00F8006148614861486148FF0080EF90F068
:10BFDE0000FEE2006E00FEE2066E00860D8D670129
:10BFEE00860A8D628D63815326FA8D5D81392725F0
:10BFFE00813126F07FE20A8D2D8002B7E20B8D187B
:10C00E008D247AE20B2705A7000820F47CE20A278C
:10C01E00D3863F8D317EE0E38D0CB7E20C8D07B7F2
:10C02E00E20DFEE20C398D5348484848168D4C1BE4
:10C03E0016FBE20AF7E20A3944444444840F8B307B
:10C04E00813923028B077EE1D17EE1AC8DF808A603
:10C05E0000810426F7398DC0CEE19D8DF2CEE20C23
:10C06E008D37FEE20C8D34FFE20C8DDD812026E84B
:10C07E008DB409A700A10027DF20968DCC80302B30
:10C08E009481092F0A81112B8C81162E88800739F5
:10C09E00A6008DA4A6000820A38DF58DF386202082
:10C0AE00A58EE242BFE2088603B780180101018621
:10C0BE0015B780188EE242CEE19D8D938D8B168D35
:10C0CE00DCC14C26037EE00AC14D278AC1522720CF
:10C0DE00C150273AC14726DCBEE2083B01010101EF
:10C0EE0001010101BFE208306D0626026A056A06EB
:10C0FE00FEE208088DA58DA38DA18D9D8D9BCEE2B0
:10C10E00088D9620AF0D0A53310401010101FEE2A4
:10C11E0002FFE20FB6E205B0E210F6E204F2E20F21
:10C12E00260481102502860F8B04B7E2118003B717
:10C13E00E20ECEE134BDE07E5FCEE2118D25CEE281
:10C14E000F8D208D1EFEE20F8D197AE20E26F9FF5D
:10C15E00E20F5337308D0C33FEE20F09BCE204269A
:10C16E00B320A0EB007EE0BF0101010101010D0A29
:10C17E002A0401010101FFE212390101018DF7B616
:10C18E0080184724FAB68019847F817F27F18D129B
:10C19E003901010101010101010101010101010149
:10C1AE00010136B68018474724F932B7801939F69F
:10C1BE00801857398DF924FCF68019398DF15724E2
:10C1CE00FB847FB7801939000000000000000000DA
:10C1DE0000FFFFFFFFFFFFFFFFFFFFFFFFFFFFFF60
:10C1EE00FFFFFFFFFFFFFFFFFFFFFFFFFFFFFFFF51
:10C1FE00FFFFFFFFFFFFFFFFFFFFFFFFFFFFFFFF41
:10C20E00FFFFFFFFFFFFFFFFFFFFFFFFFFFFFFFF30
:10C21E00FFFFFFFFFFFFFFFFFF0000FFFFFFFFFF1E
:10C22E00FFFFFFFFFFFFFFFFFFFFFFFFFFFFFFFF10
:10C23E00FFFFFFFFFFFFFFFFFFFFFFFFFFFFFFFF00
:10C24E00FFFFFFFFFFFFFFFFFFFFFFFFFFFFFFFFF0
:10C25E00FFFFFFFFFFFFFFFFFFFFFFFFFFFFFFFFE0
:10C7DE00FF7EE97EFEA0006E00FEA0066E00FEA0AB
:10C7EE000A6E0042EA1943EA5744EA0E47EA284C19
:10C7FE00E8D34DE9204EEA3A50EB0552EA5F53EA90
:10C80E000154EA5355EA1445ED0856EA20A078EB98
:10C81E0079EBA320037EEBE17EEBE58D0CB7A03E1A
:10C82E008D07B7A03FFEA03E398D534848484816A5
:10C83E008D4C1B16FBA03CF7A03C39444444448469
:10C84E000F8B30813923028B077EE95C7EE9698D7F
:10C85E00F808A600810426F7398D17CEECB18DF2BB
:10C86E008DB9FFA0028D0BCEECBC8DE68DADFFA079
:10C87E000439FFA03ECEEC898DD8FEA03E398DCC7A
:10C88E0080302B6A81092F0A81112B6281162E5E50
:10C89E00800739A6008DA4A6000820A38DF58DF380
:10C8AE00862020A586118DA1B6A0448A40B7801897
:10C8BE007CA0168D9720037EE9A7815326F58D8CDB
:10C8CE008139272A813126EB7FA03CBDE8588002B2
:10C8DE00B7A03DBDE84ABDE8587AA03D2709A7009C
:10C8EE00A10026060820EF5C27C9863F8D3F7EE912
:10C8FE00BDBDE84A8DAAFEA03E8DA3098D3C810ADE
:10C90E002712815E2711BDE8AFBDE85AA700A1002E
:10C91E0026D820E8082005860A8D1209FFA03ECEF3
:10C92E00EC81BDE881CEA03EBDE8CB20C937F680B4
:10C93E0018575724F9B780193339B680184724FA97
:10C94E00B68019847F817F27F17DA01627DF398E6F
:10C95E00E83BCEA00832A700088CA01626F76F0081
:10C96E00088CA08026F886D0B7A0798603B78018E9
:10C97E008611B7A044B78018BEA008BDE8A120025A
:10C98E0020B8CEEC90BDE881CEE9EEFFA006BEA0A9
:10C99E0008B6A044B780187FA016CEEC7FBDE88104
:10C9AE008D981620022086BDE8CFCEE812E1002732
:10C9BE000A0808088CE83C26F420D3EE016E00BF6E
:10C9CE00A008BDE8A186428DDCBDE8CF86028D6E43
:10C9DE00205E8DAC81312798861520967EE84A869A
:10C9EE00018D5B20568DF54F20F7BDE8A186022004
:10C9FE00F08DE986048D4720F18DE186FF8D3F3065
:10CA0E00B6A03EA705B6A03FA7063BCE00017FA06D
:10CA1E0043FFA01AFEA008EE06FFA017A600B7A0BF
:10CA2E00197EEBCE8DB620E67CA043CE000120E130
:10CA3E00BDE8A1CEEC9BBDE8818D7B7EE9BDBFA09C
:10CA4E0040B7A03CCEA01CB6A03CAE00272D7DA0CA
:10CA5E004227364D2B21A61036B6A03C2737810132
:10CA6E0027418102274908088CA02C26DA4F7DA089
:10CA7E003C2A014CB7A042BEA04039810426E7BE35
:10CA8E00A03EAF007AA03C20DD4D2ACD3432A71057
:10CA9E00863F3620D1A600B1A03E26CAE601F1A0FF
:10CAAE003F26C36F006F0120BD7EE8CD7EE8CBBE72
:10CABE00A0408DF820B2BDE8A1FEA008088DEA8D39
:10CACE00E88DE68DE78DE5CEA0088DE0390D0A00E4
:10CADE00000000533104BDE8888612BDE878C619FF
:10CAEE004FBDE8785A26F9FEA002FFA040B6A00579
:10CAFE00B0A041F6A004F2A04026048110250286C3
:10CB0E000F8B04B7A03D8003B7A03CCEEAFCBDE876
:10CB1E00815FCEA03D8D2ECEA0408D298D27FEA00B
:10CB2E00408D227AA03C26F9FFA0405337308D1558
:10CB3E0033FEA04009BCA00426B3BDE8A1CEEC7420
:10CB4E00BDE8812032EB007EE8C2BFA0088603BD9F
:10CB5E00EA6D306D0626026A056A06EE05BCA01760
:10CB6E002718A600813F260C306C0626026C05FEA7
:10CB7E00A00C6E00BDEAE57EE9BDB6A019A7007D4A
:10CB8E00A043270F7FA04386FFBDEA6D7FA0177FCE
:10CB9E00A0183BBDEAE5FEA01A09FFA01A27D8B6D9
:10CBAE00A019B7A00E8D704D2A3532348A10067E2C
:10CBBE00A00E86022029FEA017A60108082B128DB2
:10CBCE0016FFA017A600B7A019863FA700BEA008A3
:10CBDE003B094C26FC20EA4D2704084A26FC39FE68
:10CBEE00A017E600C16E271AC17E271DC1AD271200
:10CBFE00C1BD2715C13B2715C1392716C18D27B6D3
:10CC0E0020BDA60130EE0320B6EE0120B430EE0CAE
:10CC1E0020AF30EE0720AA1644444444CEEC648D77
:10CC2E00B6A600260F8602C18C2708C1CE2704C1E6
:10CC3E008E26014C3901018201010102030002021C
:10CC4E000300020203533930333030303046430490
:10CC5E00130A0D14000000002A040D0A0000000043
:10CC6E00044D494B42554720322E30044343204257
:10CC7E00202041202020582020202050202020201D
:10CC8E0053044245472041444452203F04454E44FC
:10CC9E002041444452203F0445584F525441504580
:10CCAE0020342E330443204C204420533A20044693
:10CCBE00494C452049443A2004535441525453544C
:10CCCE004F502050414745533A2004535045454458
:10CCDE003A2004BDE8A17EE8818D087EE9A7863F53
:10CCEE00BDE878CE1B26FFA049CEECC78DE5CEEC75
:10CCFE00FA8DE0BDE85881202605CE0B0D2022814D
:10CD0E00162605CE0D11201981122605CE121820D9
:10CD1E001081042605CE35502007810826C0CE1B73
:10CD2E0026FFA049CEECD48DAABDE87B815327BE49
:10CD3E00B7A04BCEECDE8D9BBDE84AFFA045BDE80B
:10CD4E00A1B6A04B81442611CEECE88D89BDE84AF0
:10CD5E00FFA047BDE8A17EEF3A81432709814C270A
:10CD6E00097EED0D20048601200286E7B7A04B7FD9
:10CD7E00A04C8639B7A04DBDEF7E8D5E27228D5417
:10CD8E00271EC120270AC11026F48D15271220EE6A
:10CD9E007DA053270B2B04862D2002862BBDE87811
:10CDAE00398D2EF7A04E7FA04FFEA04E8D23274922
:10CDBE00BDA04B087CA04F26F37AA0538D138D1186
:10CDCE00B6A051BAA05226048647200286427EEFB4
:10CDDE007B7EEF72202486588DF48D1E271BC10892
:10CDEE0026F88DEDF1A04526ED8DE6F1A04626E65E
:10CDFE0086488DDA8DDBF7A053397FA04E7FA05089
:10CE0E0078A05079A04E8D2427EFB6A04EF6A050F4
:10CE1E00818926ECC1AF26E87FA0517FA052C602C1
:10CE2E00F7A0508D0727D278A05024F75F5A271FFE
:10CE3E008D4325F95A27188D3C24F9F6A0495A2717
:10CE4E000E8D3225F95A27078D2B24F97CA050B66A
:10CE5E00A05046468480B8A051F6A05258492404EA
:10CE6E008880C805B7A051F7A052F6A050BDEF7844
:10CE7E00847F811B397EEF6C368DD9320D492006A9
:10CE8E0032368DD03248C60ABDEF6F37F6A04A5AF9
:10CE9E0026FD335924F2364826E631398D2E8D2C57
:10CEAE0086898D2886AF8D247FA0517FA052398D23
:10CEBE001B8D198DE786088D13B6A0458D0EB6A075
:10CECE00468D09B6A048B0A0474C8D007EEF758DFB
:10CEDE00CB86208DF720F58DC386108DEFB6A04E34
:10CEEE008DEA7FA04FFEA04EA6008DE0087CA04FDD
:10CEFE0026F68D0786448D544F20D1B6A052B7A08A
:10CF0E004FB6A0518DC6B6A04F20C18D458DA0B68F
:10CF1E00A047B7A04E7AA04E7CA04E8DBAB680190F
:10CF2E00847F811B2708F6A048F1A04E26EA8D9F2C
:10CF3E00397F80058604B78004B78005397EEF847B
:10CF4E007EEF917EEE4D7EEEA77EEF897EEF8D7E9B
:10CF5E00EF607EEF60B680044639B6801939B7802F
:10CF6E001939F780043937C60837305F5849240419
:10CF7E00EB0189006A0026F431313934306F004DEF
:10CF8E002A03406C005D2A03506C008DD930660078
:10CF9E00240440508200313936A6002B29368608EB
:10CFAE003630A602A101241C58492404AB012003EB
:10CFBE00A0015C6A0026F10D594D2A045AAB010AF4
:10CFCE00313131393131310B39E803E80DE808E9F7
:10CFDE007E8EFEFFBDF867CE0000FFFF30FFFF37ED
:10CFEE00FFFF358653B7FF397FFF3B7FFF3C7FFF47
:10CFFE003DFFFF3EBFFF40FFFF4286C0B7FF44CE5E
:10D00E00F742BDF61FCE55AAC66486058B0518815C
:10D01E0055271F816E271481102625CEFFFFEC01A8
:10D02E008C00002714CEF7EA4F201CCEF7F38601B2
:10D03E002015CEF7FC8603200ECEF80586042007B9
:10D04E00BDF62DCEF7E04FB7FF3BBDF61FCEF75D19
:10D05E00BDF61FBDF672CEFF20BDF6B9BDF6C34DAF
:10D06E0027EB814426037EF0D3814726037EF224EC
:10D07E00815326037EF263814C26037EF2D78150C4
:10D08E0026037EF3F2815226037EF5348148260371
:10D09E007EF0CACEF77ABDF61F20B2CEF7A4BDF64B
:10D0AE001F7EF07C08BDF6B9BDF6CE5D2619BDF625
:10D0BE00B9A60026DEB6FF318B80B7FF33B6FF3040
:10D0CE008900B7FF322042B6FF46B7FF31B6FF45A3
:10D0DE00B7FF30BDF6B9A600812C27154D26B4B684
:10D0EE00FF318B80B7FF33B6FF308900B7FF322098
:10D0FE001808BDF6B9BDF6CEBDF6B95D27956D0023
:10D10E002691FEFF4508FFFF32B6FF3184F0B7FFD0
:10D11E0048B6FF30B7FF477FFF348D2DBDF87F2611
:10D12E0016B6FF34810225F2B6FF33B7FF31B6FFD4
:10D13E0032B7FF307EF07CB6FF48B7FF31B6FF47FF
:10D14E00B7FF30BDF8747EF07CB6FF47F6FF48BDE2
:10D15E00F62ACEF782BDF61FCEFF20FFFF49C6107E
:10D16E008D295A26FBCEF785BDF61FCEFF20C610A1
:10D17E00A6000881202509817F2405BDF88520059C
:10D18E00862EBDF8855A26E87EF6688620BDF8857F
:10D19E00B6FF34262EB6FF30B1FF472608B6FF3154
:10D1AE00B1FF4827198620BDF885BDF885FEFF49D9
:10D1BE00A70008FFFF49FEFF4708FFFF473986011A
:10D1CE00B7FF34B6FF34810126DBFEFF47A6000809
:10D1DE00FFFF47FEFF49A70008FFFF49BDF62DB62A
:10D1EE00FF32B1FF47260DB6FF33B1FF4826058645
:10D1FE0002B7FF343908BDF6B9BDF6CEA600270337
:10D20E007EF0C25D2706FEFF45FFFF42B6FF40BA25
:10D21E00FF412703BEFF40B6FF4336B6FF4236B688
:10D22E00FF3F36B6FF3E36B6FF3C36B6FF3D36B64E
:10D23E00FF44363B08BDF6B9BDF6CEBDF6B96D005E
:10D24E0026635D2706FEFF45FFFF37B6FF37F6FF65
:10D25E0038BDF62ACEF785BDF61FFEFF37A600BDF8
:10D26E00F62D8620BDF885BDF672CEFF20BDF6B92F
:10D27E00A6002609FEFF3708FFFF3720CE812D2698
:10D28E0009FEFF3709FFFF3720C1812E26037EF0EE
:10D29E007CBDF6CE5D270EFEFF37B6FF46A7000813
:10D2AE00FFFF3720A67EF0C208BDF6B9BDF6CEBD93
:10D2BE00F6B96D0026EFBDF874BDF6C38153270C89
:10D2CE00813A270F810D27EE810A27EABDF87420D7
:10D2DE00F32072BDF642B7FF4B16BDF642B7FF47BD
:10D2EE00BBFF4BB7FF4BBDF642B7FF48BBFF4BB77B
:10D2FE00FF4BB6FF48BBFF46B7FF48B6FF47B9FF27
:10D30E0045B7FF47FEFF47BDF642B7FF3ABBFF4B9F
:10D31E00B7FF4B5D2716BDF64236BBFF4BB7FF4B33
:10D32E00327DFF3A2603A700085A26EABDF642BB15
:10D33E00FF4B26087DFF3A27937EF07CCEF760BD2B
:10D34E00F61F7EF07CBDF874B7FF3ABDF64216B7F5
:10D35E00FF4BBDF642B7FF47BBFF4BB7FF4BBDF6CA
:10D36E0042B7FF48BBFF4BB7FF4BB6FF48BBFF466C
:10D37E00B7FF48B6FF47B9FF45B7FF47FEFF47C0A7
:10D38E0003271BBDF64236BBFF4BB7FF4BB6FF3A2A
:10D39E008131260632A700082001325A26E5BDF655
:10D3AE0042BBFF4B81FF2612B6FF3A813727118110
:10D3BE0038270D813927097EF2FBCEF76DBDF61F9A
:10D3CE007EF07C08A600BDF6C38149270481532652
:10D3DE000408B7FF39BDF6B9BDF6CE5D2726B6FFF8
:10D3EE0045B7FF49B6FF46B7FF4ABDF6B9A600815D
:10D3FE002C261108BDF6B9BDF6CE5D2707BDF6B9D0
:10D40E006D0027037EF0C2FEFF4508FFFF45B6FF05
:10D41E0046B0FF4AB7FF46B6FF45B2FF49B7FF45D4
:10D42E00FEFF498D21B6FF45BAFF4626F6B6FF39F7
:10D43E0081492609CEF789BDF61F7EF07CCEF7977F
:10D44E00BDF61F7EF07CC6107DFF452607B6FF4653
:10D45E0011240116B6FF4610B7FF46B6FF458200EF
:10D46E00B7FF45B6FF398149264C863ABDF8851778
:10D47E00BDF62DF7FF4BFFFF49B6FF49BDF62DB6A2
:10D48E00FF49BBFF4BB7FF4BB6FF4ABDF62DB6FFAC
:10D49E004ABBFF4BB7FF4B4FBDF62DA60036BDF670
:10D4AE002D32BBFF4BB7FF4B085A26EFB6FF4B4052
:10D4BE00BDF62D7EF6688653BDF8858631BDF8859E
:10D4CE00178B03B7FF4BBDF62DFFFF49B6FF49BDC6
:10D4DE00F62DB6FF49BBFF4BB7FF4BB6FF4ABDF665
:10D4EE002DB6FF4ABBFF4BB7FF4BA60036BDF62D40
:10D4FE0032BBFF4BB7FF4B085A26EFB6FF4B43BD6F
:10D50E00F62D7EF66808BDF6B9BDF6C34D2606BDEE
:10D51E00F5CB7EF07CFFFF47CEF82F6D00277AA16A
:10D52E0000270808080808080820F0FFFF49FEFF3A
:10D53E004708BDF6B96D002660FEFF49EE04BDF644
:10D54E001F863DBDF885FEFF49E601EE02C10126AC
:10D55E0007A600BDF62D200AA600BDF62DA601BD1C
:10D56E00F62D8620BDF885BDF672CEFF20BDF6B92C
:10D57E00A6002722BDF6CE5D271FFEFF49E601EE6F
:10D58E0002C1012607B6FF46A700200AB6FF45A72F
:10D59E0000B6FF46A7017EF07C7EF0C2CEF814BD29
:10D5AE00F61FB6FF3CBDF62DCEF817BDF61FB6FF23
:10D5BE003DBDF62DCEF81BBDF61FB6FF3EF6FF3F66
:10D5CE00BDF62ACEF81FBDF61FB6FF40F6FF41BDD1
:10D5DE00F62ACEF824BDF61FB6FF42F6FF43BDF67F
:10D5EE002ACEF829BDF61FB6FF44BDF62D7EF6688D
:10D5FE00A6002706BDF8850820F6398D011736449A
:10D60E004444448D0132840F8B30813A25028B07BE
:10D61E007EF8854F8D04484848483716BDF874BDCE
:10D62E00F6C381302511813A250A814125098147AA
:10D63E002405800780301B3339860DBDF885860A98
:10D64E007EF885CEFF205FBDF874810D2737810AE5
:10D65E00273381082719817F2715812025E98180AD
:10D66E0024E5C10F24E15CA70008BDF88520D85D34
:10D67E0027D55A098608BDF8858620BDF885860807
:10D68E00BDF88520C28DB26F0039A6008120260319
:10D69E000820F73981612506817B24028BE0395FF2
:10D6AE007FFF457FFF46A6008DEA81302534813A03
:10D6BE00250A8141252C814724288007803049493D
:10D6CE0049494979FF4679FF454979FF4679FF4532
:10D6DE004979FF4679FF454979FF4679FF45085C50
:10D6EE0020C439CEF80EBDF61F32B7FF4432B7FF55
:10D6FE003D32B7FF3C32B7FF3E32B7FF3F3233C049
:10D70E0001F7FF438200B7FF42BFFF40BDF5CB7E5E
:10D71E00F07C3B0D0A556E6976657273616C204D17
:10D72E006F6E69746F7220363830300D0A005D20CE
:10D73E00004572726F7220696865780D0A00457235
:10D74E00726F7220737265630D0A004572726F728A
:10D75E000D0A00203A00203A20003A3030303030A6
:10D76E0030303146460D0A005339303330303030C8
:10D77E0046430D0A002445304430203A204D696B53
:10D78E006275670D0A2445323438203A205374618D
:10D79E00727420416464726573730D0A24453830C7
:10D7AE0030203A204D696B62756720322E300D0A9B
:10D7BE0000556E6B6E6F776E0D0A004D4336383026
:10D7CE00300D0A004D43363830310D0A00484436CC
:10D7DE003330310D0A004D42383836310D0A0053C0
:10D7EE0057490D0A00413D0020423D0020583D00A2
:10D7FE002053503D002050433D00204343523D00F6
:10D80E004101FF3CF8574201FF3DF8595802FF3ED7
:10D81E00F85B5302FF40F85D5002FF40F860430191
:10D82E00FF44F863000000004100420058005350CE
:10D83E0000504300434352008603B780180101860F
:10D84E0015B7801839B68018840127F9B6801939B2
:10D85E00B6801884013936B68018840227F932B79B
:10D86E0080193900000000000000000000000000D8
:10D87E00000000000000000000000000000000009A
:10D88E00000000000000000000000000000000008A
:10D89E00000000000000000000000000000000007A
:10D8AE00000000000000000000000000000000006A
:10DF5E00007EF00000000000007EF07C000000005B
:10DF6E00007EF88500000000007EF61F0000000015
:10DF7E00007EF87400000000007EF87F00000000B4
:10DF8E000000000000000000000000000000000083
:10DF9E000000000000000000000000000000000073
:10DFAE000000000000000000000000000000000063
:10DFBE000000000000000000000000000000000053
:10DFCE00000000000000000000F741F712F741F0DA
:10DFDE00000D7600F37E18F97E033C0000483800F1
:10DFEE002C000000000000000000000000000000F7
:10DFFE000000000000000000000000000000000013
:10E00E000000000000000000000000000000000002
:10E01E0000000000000000000000000000000000F2
:10E02E0000000000000000000000000000000000E2
:10E03E0000000000000000000000000000000000D2
:10E04E0000000000000000000000000000000000C2
:10E05E0000000000000000000000000000000000B2
:10E06E0000000000000000000000000000000000A2
:10E07E000000000000000000000000000000000092
:10E08E000000000000000000000000000000000082
:10E09E007C00C926037C00C8B6EA60813A24088158
:10E0AE002027ED803080D039FFEA607E03C7000064
:10E0BE000006060606060604FFFDFFFDFFFFFFFD38
:10E0CE00FDFFFDFD00FDFFFDFDFDFFFDFFFF64609B
:10E0DE00FD00000000000000000000000000804F66
:10E0EE00C752007E18F90CD80E341490150414AAD9
:10E0FE000D4C0E150E4016FC17DC12D217681812B6
:10E10E001818185E18A2118D10A90EF1114A10C917
:10E11E0010B510D110EE10F57911C77911BC7B1323
:10E12E000A7B13BE7F1705500B96460B95454EC4C2
:10E13E00464FD24E4558D4444154C1494E5055D401
:10E14E004449CD524541C44C45D4474F54CF525506
:10E15E00CE49C6524553544F52C5474F5355C252DE
:10E16E0045545552CE5245CD53544FD04FCE4E55A9
:10E17E004CCC574149D44445C6504F4BC5505249DB
:10E18E004ED4434F4ED44C4953D4434C4541D24EBA
:10E19E0045D7544142A854CF46CE535043A8544875
:10E1AE0045CE4E4FD4535445D0ABADAAAFDE414E03
:10E1BE00C44FD2BEBDBC5347CE494ED44142D355B7
:10E1CE0053D24652C5504FD35351D2524EC44C4FD8
:10E1DE00C74558D0434FD35349CE5441CE4154CE68
:10E1EE00504545CB4C45CE535452A45641CC415389
:10E1FE00C3434852A44C454654A45249474854A4DC
:10E20E004D4944A400062E056509B3070608DA0C2D
:10E21E00200900079106C906A30727061206AD06B8
:10E22E00E0073A062D07470664119B0E4F1194071F
:10E23E00FA06520514067504E24EC653CE52C74F67
:10E24E00C446C34FD64FCD55D342D344C42FB04945
:10E25E00C454CD4FD34CD353D443CE55C620455280
:10E26E00524FD20020494EA0000D0A4FCB0D0A008E
:10E27E000D0A42524541CB003008080808C610DF8F
:10E28E0071A60080812614EE01DF73DE9E27089CA6
:10E29E007327088D4220E6DE73DF9EDE714D398DC9
:10E2AE002007369F780F9EA3DEA50809A600369C90
:10E2BE00A926F8319FA79E783206394F58DB8199EF
:10E2CE0080CB268900251B9F78917825062213D1B5
:10E2DE0079220F394FDF71DB7299719773D774DE24
:10E2EE007339C60CBD05007F0111BD0834BD0893FE
:10E2FE00CE02688DDFA600BD0895A601BD0895CE9D
:10E30E00028BBD0879DE8A082703BD15D77F011160
:10E31E00CE0297BD0112862C970FBD03ECDFC8BD50
:10E32E0000BF27F2250BCEFFFFDF8ABD042E7E0530
:10E33E00EFBD0767DE8EDF0EBD042ED75ABD04C4B7
:10E34E002522D6AAE00186FFDB7D997C977CD77DBE
:10E35E0007369F780FAE003432A700089C7C26F853
:10E36E009E7832069610272B967CD67D97A5D7A63B
:10E37E00DB5A890097A3D7A4BD02CE07369F780F2C
:10E38E008E000B32A700089CA726F89E783207DE77
:10E39E00A3DF7CBD04EEDE7AA600AA0126037E036F
:10E3AE0045DFD80808080808A60026FB087E00D717
:10E3BE00BD0895095A260BBD0895BD0834CE001030
:10E3CE00C6018D2B81072714810D2720812025F270
:10E3DE00817D24EE814027DF815F27D4A700C148CD
:10E3EE002403085C8C8607BD089520D67E082F373F
:10E3FE00BDE1E31733847F810F2603730111397F4B
:10E40E00005D7A00C9CE000FDFBD9F7807975F01D0
:10E41E000F9EC833C1202732D759C1222755965D8A
:10E42E002628C13F2604C6952020C1302504C13CB4
:10E43E002518CE015B9EC85F0832812027FBA00005
:10E44E0027F681802632CA80DEBD9FC89E78965FF1
:10E45E000608DFBDE700272FC03A2704C149260270
:10E46E00D75DC05426A9D7590F9EC8335D27DBD17F
:10E47E005927D708E70020F39EC85CA600082AFBA0
:10E48E00A60026B53320C1E701E702D6BEC00BCEEB
:10E49E00000FDFC839968EDE7AE600EA012710A15A
:10E4AE00022208250BD68FE1032305EE0020EA0D8C
:10E4BE00DFA93926FBDE7A6F00086F0008DF7CDEED
:10E4CE007A09DFC8DE88DF84BD0612DE7CDF7EDFE0
:10E4DE0080CE0065DF6130EE009E824F36979097BA
:10E4EE0091975E6E0022ADBD076726A832328DA5CC
:10E4FE00A600AA0126037E033CBD0618BD0834A65D
:10E50E0002E60308080808DF71BD15E08620DE71FB
:10E51E00BD0895A600084D27D72AF5807FDF71CE5E
:10E52E00015C4A2707E600082AFB20F6A6002BDE30
:10E53E0008BD089520F68680975EBD0791BD02A79F
:10E54E0031312604BD030635C608BD02EABD070BF0
:10E55E00DF71D67237D67137D68B37D68A37C69BD0
:10E56E00BD0B3FBD0A0DBD0A0BD6B3CA7FD4B0D7C3
:10E57E00B0CE05A67E0AABCE12B1BD1438BD00C713
:10E58E0081A02606BD00BFBD0A0BBD1483BD0AA522
:10E59E00D69F37D69E378681368D4EDEC8DF92A641
:10E5AE00002707813A27197E0B4908A60008AA0002
:10E5BE000C07275408A600978A08A600978BDFC879
:10E5CE00BD00BF8D0220D2276B808024037E079171
:10E5DE00811A24D34816CE0234BD0303EE00BD00CB
:10E5EE00BF6E00DE7A09DF9639BDE1DE24FABD0486
:10E5FE001E36B6F0028402322702860381030D26F0
:10E60E003307DEC8DF923131DE8A08270709DF8C37
:10E61E00DE92DF907F0111CE029E0624037E03312F
:10E62E007E033C260FC620DE9026037E0313DFC832
:10E63E00DE8CDF8A39BD113B26FA5CD10C24045ADC
:10E64E00D70A397E0D4C2729BD0CD1BD00C726E453
:10E65E009688D689D0B292B12514DE829782D7835E
:10E66E00C02882002506D07D927C2405DF827E03A1
:10E67E00117E04F326037E04EEBD04F32014C603BC
:10E68E00BD02EAD6C937D6C837D68B37D68A378673
:10E69E008C36BD00C78D037E05C8BD07678D40084B
:10E6AE00968E918A2202DE7ABD04C8251509DFC82E
:10E6BE003926FD86FF979EBD02A735810B270BC617
:10E6CE00048CC60E7E03137E0B493233D78A33D7A2
:10E6DE008B33D7C833D7C98D03DFC839C63A865FA7
:10E6EE00D7585FDEC817D6589758A60027ED1127C2
:10E6FE00EA08812227EF20F2BD0A19BD00C78188E2
:10E70E002705C69EBD0B3F96AF26058DD2DFC839B5
:10E71E00BD00C725857E05F6BD113B36818C2704CD
:10E72E00818826A37A00B22604327E05F8BD00BF8A
:10E73E008D06812C27EE3139CE0000DF8E24F88035
:10E74E00309758968ED68F811822D758495849DB64
:10E75E008F998E5849DB588900978ED78FBD00BF91
:10E76E0020DBBD0C29DF9EC6A9BD0B3F965C36BDD6
:10E77E000A193246BD0A0F2749DEB19682A102223E
:10E78E00232506D683E103241B967C91B122152501
:10E79E0006D67CD1B2220DE600BD0F01DEADBD1056
:10E7AE005FCE00AFDFADBD109B07369F780FDEAD9D
:10E7BE0035DE9E32A7003232A70232A7039E783290
:10E7CE0006397E1452BD087CBD00C72738274E81FE
:10E7DE009A275C819D2758812C2743813B2766BD54
:10E7EE000A19DEB1965C26DDBD15EFBD0F0ADEB14E
:10E7FE00960BAB00910C23028D0B8D518D6320C8AF
:10E80E006F00CE000F860D970B8D5B860A8D5737E6
:10E81E00D60A27064F8D4F5A26FBD70B3339D60B08
:10E82E00D10D25048DDF201DC00E24FC5020113685
:10E83E00BD11388129266732819D2704D00B23050F
:10E84E008D1F5A26FBBD00BF2083BD0F0BBD107D53
:10E85E005C5A27C9A6008D0E08810D26F48DB020B6
:10E86E00F086208C863F7D01112617368120250BE0
:10E87E00960B910C26028D8D4C970B323716BDE1FF
:10E88E00EB33393F5245444F2046524F4D2053549F
:10E89E004152D40D0A00965F2707DE94DF8A7E0B65
:10E8AE0049CE08B18DA4DE92DFC8397F01118122D5
:10E8BE00260ABD0B0AC63BBD0B3F8D91BD0E458D85
:10E8CE00099610260F0C077E06358D988D937E03C4
:10E8DE00ECDE96864F975FDF98BD0C29DF9EDEC873
:10E8EE00DF8EDE98A6002609965F264EBD08938D14
:10E8FE00D9DFC8BD00BFD65C271CDEC89758812261
:10E90E00270709863A9758862C9759BD0F11BD11C6
:10E91E006CBD07A82006BD1526BD1452BD00C72725
:10E92E0007812C27037E08C5DEC8DF98DE8EDFC880
:10E93E00BD00C7272ABD0B3D209FDFC8BD070B4D6D
:10E94E002614A601C606AA02274DA6039794A6046E
:10E95E0097950808080808A600818326DD2092DE18
:10E96E0098D65F27037E0615A6002706CE09A17E40
:10E97E000879393F45585452412049474E4F524528
:10E98E00C40D0A002605CE00002003BD0C29DF9E13
:10E99E00BD02A72704C600204E35080808DF71BD4A
:10E9AE00143830A60797B3DE9EBD11C4BD1452DED7
:10E9BE00710808080808BD14AE30E007270CEE0CED
:10E9CE00DF8A30EE0EDFC87E05C8C610BD030335E4
:10E9DE00BD00C7812C26F0BD00BF8DAF8D0C6D0D17
:10E9EE0076005C288DC6187E0313DEC809DFC84F7B
:10E9FE00C63736C601BD02EABD0AEB7F00A2BD00D6
:10EA0E00C780A825148103241081014998A291A2E0
:10EA1E00255D97A2BD00BF20E8D6A2262D246B8BC4
:10EA2E00072467995C26037E102589FF16481B165E
:10EA3E00CE0147BD030332A10024568DA1368D238E
:10EA4E00DEA03226184D2771205078005C59DEC8A2
:10EA5E0009DFC8CE0A89D7A220DC640BBCA1002432
:10EA6E003920DAA60236A601368D07D6A220827E7E
:10EA7E000B49D6B3A60030EE00313137D6B237D6B9
:10EA8E00B137D6B037D6AF376E00CE0000324D2735
:10EA9E002881642703BD0A0DDFA033815A271C810C
:10EAAE007D271854D7603297B633D7B733D7B833DC
:10EABE00D7B933D7BAD8B3D7BBD6AF397F005C8DB1
:10EACE005624037E1526BD0C85245C812E27F481E9
:10EADE00A2274C81A127E881222608DEC8BD0F0B94
:10EAEE007E116C819F2611865ABD0A20BD0CD896C8
:10EAFE00B1D6B243537E0E34819C26037E0E8D809A
:10EB0E00AB24308D06BD0A19C6298CC6288CC62C9E
:10EB1E00DEC8A6001126037E00BFC6027E03138642
:10EB2E007DBD0A207E173BBD0C29DFB1965C268B7E
:10EB3E007E143816588DE037C127251A8DCDBD0AA3
:10EB4E00198DCBBD0A0E32D6B237D6B13736BD11BE
:10EB5E003B32371620038DAB33CE0119BD0303EEC6
:10EB6E0000AD007E0A0D864F975ABD0CD8DEB1DF80
:10EB7E0058BD1469BD0CD89658D6597D005A260634
:10EB8E0094B1D4B220049AB1DAB27E0E34BD0A0F1B
:10EB9E00261096BA8A7F94B797B7CE00B6BD14AE3C
:10EBAE0020407F005C7A00A2BD107DD7AFDFB1DEC2
:10EBBE00B8BD107F96AF10270786012403D6AF404D
:10EBCE0097B307369F780F35DEB15C095A2604D607
:10EBDE00B3200B3208A10027F3C6FF2401509E7804
:10EBEE003206CB0159D4602702C6FF7E1492BD0BAC
:10EBFE003D168D0ABD00C726F5395FBD00C7D75B30
:10EC0E00979ABD00C78D4F24037E0B495FD75CBD1D
:10EC1E0000BF25048D40250A16BD00BF25FB8D368D
:10EC2E0024F78124260873005CCB80BD00BFD79BE0
:10EC3E009B5E802826037E0CE97F005EDE7C969A22
:10EC4E00D69B9C7E2719A1002604E10127480808BF
:10EC5E000808080820EC81412504805B80A5393224
:10EC6E0036810B2604CE0D0539DE80DFA5C606BD26
:10EC7E000303DFA3DE7EDFA9BD02CEDEA3DF80DECF
:10EC8E00A7DF7EDEA9969AD69BA700E7014FA702C3
:10EC9E00A703A704A7050808DF9C3990800000BDD4
:10ECAE0000BFBD0A0B96B32B7496AF81902508CE8C
:10ECBE000CCABD14AE26667E14DA965B36965C36AA
:10ECCE005F37D69B37D69A378DD533D79A33D79BA6
:10ECDE003330A60136A6003696B1A70096B2A7012C
:10ECEE005CBD00C7812C27D9D75ABD0B3732975C34
:10ECFE0032975BDE7E9C802729969AA10026069687
:10ED0E009BA1012709A602E603BD030420E7C61254
:10ED1E00965B260BD65AE1042767C6108CC6087E72
:10ED2E000313860497BE7F00BD969AA700969BA7F5
:10ED3E0001D65AE704BD02EADFA3C60B4F7D005B86
:10ED4E0027063233CB018900A705E7068D6F97BDE5
:10ED5E00D7BE08087A005A26E1BD030425BCBD02C1
:10ED6E00F0C02182009780D7814F09A7059C71269C
:10ED7E00F9DEA39680D0A4E70392A3A702965B26A2
:10ED8E003BE604D75A4F5F97BDD7BE3297B133D704
:10ED9E00B2A1052506224CE106244896BE9ABD0C6A
:10EDAE0027048D19DBB299B108087A005A26D85873
:10EDBE00495849CB058900BD0304DF9C398610975D
:10EDCE00A7A6059778A60697794F5F584925147818
:10EDDE0000BE7900BD2406DB79997825067A00A756
:10EDEE0026E9397E0D499F789678D679CE00807DBA
:10EDFE00005C270DBD107DBD0F86CE00829684D699
:10EE0E0085E001A2007F005C97B0D7B1C6907E145A
:10EE1E0099D60B4F20EFDE8A0826A1C6167E031365
:10EE2E008D298DF2BD0B3AC680D75EBD0C298D2B78
:10EE3E00BD0B37C6A9BD0B3FDEAB96C8D6C9A70022
:10EE4E00E701969CD69D8D757E0706C69CBD0B3F31
:10EE5E00C680D75E8A80BD0C2FDFAB7E0A0D8DEB90
:10EE6E00D6AC37D6AB37BD0B328DF033D7AB33D7ED
:10EE7E00ACDEABC622EE0227A4DF9CA60336A602AA
:10EE8E0036A60136A60036BD1454DEABD6C937D62B
:10EE9E00C837EE00DFC8D69D37D69C37BD0A0B3378
:10EEAE00D79C33D79DBD00C727037E0B4933D7C8E8
:10EEBE0033D7C9DE9C32A70032A7013233A702E74F
:10EECE000339BD0A0DCE00FFBD15F23131CE00FE65
:10EEDE00200ADFAD8D53DFB1D7AF3909862297589F
:10EEEE00975908DFBBDFB1C6FF5CA600270E08915D
:10EEFE00582704915926F28122270109DFBDD7AF89
:10EF0E0096BB26078DCCDEBBBD1061DE618C007119
:10EF1E002605C61E7E0313BD145486FF975CDF6361
:10EF2E00DFB108080808DF61397F005D375386FFBF
:10EF3E00D9859984918225112204D183250B97843A
:10EF4E00D785DE8408DF863339C61A965D26C58DD1
:10EF5E000673005D3320D5DE88DF84CE0000DFAB84
:10EF6E00DE82DFA9CE00659C6127048D3B20F8DE92
:10EF7E007C9C7E27048D2B20F8DFA3DEA39C8027AC
:10EF8E004EA602E603DBA499A397A3D7A4A6012A53
:10EF9E00EAE6044F58CB05BD03049CA327DF8D087A
:10EFAE0020F8A60108082A22E600271EA602918450
:10EFBE002218E6032504D185241091A9250C2204DC
:10EFCE00D1AA2306DFAB97A9D7AA0808080839DE0D
:10EFDE00AB27FB4FE6005ADBAA99A997A5D7A6DE69
:10EFEE0084DFA3BD02D0DEAB96A7D6A8A702E703A7
:10EFFE00DEA7097E0F8896B23696B136BD0AEBBDF6
:10F00E000A0E3297BB3297BCDEBBE600DEB1EB00D8
:10F01E002405C61C7E0313BD0F01DEBBE6008D105A
:10F02E00DEAD8D2C8D0CDEBB8D26BD0F3A7E0A2DEE
:10F03E00EE0207369F780F35DE865C200432A7007D
:10F04E00085A26F9DF869E78320639BD0A0EDEB1E1
:10F05E00E6008D182613EE06099C84260A37DB85FA
:10F06E0099849784D785330839EE02399C63260933
:10F07E00DF6109090909DF634F398D037E0E428D69
:10F08E00CA7F005C5D39BD113EC601BD0F5896B2F8
:10F09E00BD0F05A70031317E0F3A8DE32768E600DC
:10F0AE0020DA8D454FE1002303E6004F3736BD0FC2
:10F0BE0003DEAD8D9B33BD030333BD106120D88DB0
:10F0CE0028A6001020DFC6FFD7B28D4C8129270558
:10F0DE00BD0B3D8D378D125F4AA10024CF16E00087
:10F0EE0050D1B223C7D6B220C3BD0B3733D7783336
:10F0FE00D77931313233D7AD33D7AEDEADD679379E
:10F10E00D6783716263B7E0D4CBD00BFBD0A0BBD13
:10F11E000CD496B126F0D6B27E00C7BD10AE260333
:10F12E007E122FBD0303A600366F00DEC8DFBDDEE4
:10F13E0071DFC88DE3BD152632DE73A700DEBDDF9D
:10F14E00C839BD0A0B8D07DF8EBD0B3D20BE96B3B1
:10F15E002BB496AF819022AEBD14DADEB1398DEEAE
:10F16E00E6007E0E428DDBDE8EE700398DD4D79E13
:10F17E005FBD00C727028DD1D79FDE8EA600989F58
:10F18E00949E27F839CE16E6200BBD13557300B3A7
:10F19E007300BB2003BD13555D26037E1469CE009C
:10F1AE00B6162761D0AF275E2B0A97AF96BA97B3E4
:10F1BE00CE00AF50C1F82F4E4F6401BD12A8D6BB82
:10F1CE002A0963016302630343890097BC96B299CF
:10F1DE00B997B296B199B897B196B099B797B0174B
:10F1EE002A4025028D585F96B0262D96B197B0967F
:10F1FE00B297B196BC97B27F00BCCB08C1202DE769
:10F20E004F97AF97B3398D650C20B35C7800BC79FE
:10F21E0000B27900B17900B02AF196AF1097AF2302
:10F22E00DF8C25057800BC200E7C00AF27277600EA
:10F23E00B07600B17600B224048D0F27EC3973003E
:10F24E00B37300B07300B17300B2DEB108DFB12644
:10F25E00037C00B039C60A7E0313CE0074A6039752
:10F26E00BCA602A703A601A70296B5A701CB082F3D
:10F27E00EC96BCC008270A670166026603465C2648
:10F28E00F6398100000002801956AA807622F1829A
:10F29E0038AA45803504F3813504F3808000008060
:10F2AE00317218BD14832E037E0D4CCE12C296AF52
:10F2BE00808036868097AFBD11C4CE12C6BD13BCFA
:10F2CE00CE12B1BD11B9CE12B5BD17A1CE12CABDA7
:10F2DE0011C433BD15B1CE12CE8D4B27488D63862A
:10F2EE0000977597769777D6B28D0ED6B18D0AD6D2
:10F2FE00B08D0BBD142F7E121526037E12890D962E
:10F30E0075562721241096779BB99777967699B8DC
:10F31E009776967599B746977576007676007776D6
:10F32E0000BC0C20DA39A60197BA168A8097B7D896
:10F33E00B3D7BBA60297B8A60397B9A60097B6D6C1
:10F34E00AF394D27199BAF464928138B8097AF26AF
:10F35E00037E123296BB97B33996B34320023232F4
:10F36E002B037E122F7E1284BD1476270F8B02255F
:10F37E00F47F00BBBD11D07C00AF27E9398420009B
:10F38E0000BD1476CE13AC5FD7BB8D7D8C8D9727C9
:10F39E006A7000AF8DAC7C00AF27CACE0075C60375
:10F3AE00D75AC60196B091B7260D96B191B82607D9
:10F3BE0096B291B926010D0759240CE700087A0080
:10F3CE005A2B2E2728C60106250F7800B97900B8CA
:10F3DE007900B725E22BCD20DE96B990B297B9967B
:10F3EE00B892B197B896B792B097B720DDC64020C5
:10F3FE00D6565656D7BC8D087E1215C6147E0313EC
:10F40E00DE75DFB0967797B239E601D7B3CA80D7EB
:10F41E00B0E600EE02DFB1D7AF39CE00A72006CEA0
:10F42E0000A38CDE9E96AFA70096B38A7F94B0A7FA
:10F43E000196B1A70296B2A7033996BA97B3DEB674
:10F44E00DFAFDEB8DFB139DEB0DFB7DEB2DFB996DF
:10F45E00AF97B639D6AF2708D6B359C6FF25015098
:10F46E00398DF1D7B07F00B1C68896B08080D7AF06
:10F47E00860097B297BC97B37E12117F00B339E620
:10F48E000027D1E601D8B32BCFD6AFE1002617E681
:10F49E0001CA7FD4B0E101260DD6B1E1022607D60E
:10F4AE00B2E00326013956D8B320AFD6AF2741C0FC
:10F4BE009896B32A067300B5BD1270CE00AFC1F890
:10F4CE002E07BD129C7F00B5397F00B596B34976E5
:10F4DE0000B07E12A8D6AFC198241B8DCED7BC9695
:10F4EE00B3D7B38080869897AF96B297587E121195
:10F4FE00D7B0D7B1D7B239CE0000DFB3DFAFDFB1AF
:10F50E00DFA9DFA7256B812D26057300B4200481AA
:10F51E002B2605BD00BF2559812E272D8145262E70
:10F52E00BD00BF256981A2270E812D270A81A12743
:10F53E0009812B270520087300AABD00BF254F7D2A
:10F54E0000AA270A7000A920057300A826C596A94F
:10F55E0090A797A927142A0ABD13B07C00A926F8F4
:10F56E002008BD13977A00A926F896B42A887E172C
:10F57E003BD6A7D0A8D7A736BD139733C0308D0280
:10F58E002091BD144EBD1492CE00A37E11C4D6A9F7
:10F59E005858DBA95880301B97A9209E91434FF8ED
:10F5AE00947423F794742400CE02928D10968AD60A
:10F5BE008B97B0D7B1C6900DBD149D8D037E087983
:10F5CE00CE01008620D6B32A02862DA70097B3DF80
:10F5DE00BD088630D6AF26037E16DE4FC1802208C8
:10F5EE00CE15D3BD130886FA97A7CE15CFBD14B886
:10F5FE002E10CE15CBBD14B82E10BD13977A00A7C2
:10F60E0020F0BD13B07C00A720E0BD11B4BD14DA0C
:10F61E00C60196A78B072B08810824044A1686027A
:10F62E004A4A97A9D7A72E11DEBD862E08A7005DE0
:10F63E002705863008A700DFBDCE16EAC68096B233
:10F64E00AB0297B296B1A90197B196B0A90097B047
:10F65E005C565928E92403C00B50CB2F080808DF4D
:10F66E009CDEBD0817847FA7007A00A72605862E8C
:10F67E0008A700DFBDDE9C53C4808C16FC26BFDEBF
:10F68E00BDA60009813027F9812E270108862BD6C9
:10F69E00A9271E2A03862D50A7028645A701862F6D
:10F6AE004CC00A24FBCB3AA703E7046F052004A73E
:10F6BE00006F01CE01003980000000FE7960002746
:10F6CE0010FFFC18000064FFFFF6000001BD147669
:10F6DE00CE16E6BD143827614D26037E1230CE00BD
:10F6EE00ABBD14545F96BA2A10BD1504CE00AB966E
:10F6FE00BABD14B8260343D658BD146B37BD12D20B
:10F70E00CE00ABBD13088D31324624AA96AF270327
:10F71E007300B3398138AA3B0774942E40772E4F6D
:10F72E00707A88026E7C2AA0E67EAAAA507F7FFF9E
:10F73E00FF8180000081000000BD144ECE17438D66
:10F74E003D96AF818825037E1388BD150496588B90
:10F75E008127F436CE12B1BD11C4BD1305CE00A360
:10F76E00BD11B98DA7CE17478D177F00BB32BD13C4
:10F77E007139DFBDBD144E8D058D08CE00A37E13ED
:10F78E0008DFBDBD1449DEBDE600D7B408DFBD8D70
:10F79E00EDDEBD08080808DFBDBD11C4CE00A77A96
:10F7AE0000B426EB399835447A6828B146BD1483E7
:10F7BE00172B14CE010DBD14384D27E8CE17D48D5E
:10F7CE00BDCE17D8BD11C4D6B296B097B2D7B07F02
:10F7DE0000B396AF97BC868097AFBD1215CE010DC4
:10F7EE007E1454CE1881BD11C4BD1476CE1885D6A4
:10F7FE00BABD13B7BD1476BD15047F00BB96B6D641
:10F80E00AFBD11BCCE1889BD11B996B3362A0ABD4B
:10F81E0011B496B32B06730060BD173BCE1889BD8D
:10F82E0011C4324D2A03BD173BCE188D7E17A1BDD4
:10F83E00144E7F00608DB2CE00AB8DA4CE00A3BD62
:10F84E0014387F00B396608D06CE00AB7E13BC36A7
:10F85E0020C781490FDB83490FDB7F000000048640
:10F86E001ED7BA879926648723345886A55DE08310
:10F87E00490FDA96B3362A028D2096AF368181254E
:10F88E0005CE12B18DC6CE18CD8DA1328181250641
:10F89E00CE1881BD11B9324D2A037E173B39087837
:10F8AE003BD74A7B846E027C2FC1FE7D9A31747DDC
:10F8BE005A3D847E917FC87E4CBBE47FAAAA6C81A0
:10F8CE0000000000CE1A1FBD0879CEFFFFDF8A8E22
:10F8DE001B1B9F827F0111BD0834CE0065DF61CEF8
:10F8EE001AAABD0879BD08F9DFC8BD00BF8141273E
:10F8FE00D34D2615CE1AB7088637A700A1002617B6
:10F90E004AA700A10027F0200EBD00C7BD07674D16
:10F91E0027037E0B49DE8E09DF88DF84CE1A43BDB6
:10F92E000879BD08F9DFC8BD00BF16271CBD0767E3
:10F93E00968E26E8968F811025E2970C800E24FC79
:10F94E0040800E9B0C970D20088648970C863897A2
:10F95E000DC6CE86FFDB89998825037E031197821B
:10F96E00D783CE1A0ABD0879BD08F9DFC8BD00BF1E
:10F97E00CE18F28159272481412704814E26E3CEE9
:10F98E000D4CFF0133CE18A28141270FCE0D4CFF37
:10F99E00012DFF0131FF012FCE18124FA70008DFF6
:10F9AE007ADE822B058C1B1B2BB1DF82967AD67BDF
:10F9BE00BD02F0BD0834D683D07B9682927ABD15F7
:10F9CE00E0CE1A52BD0879CE0879FF0113BD04E4CA
:10F9DE0086BD9704CE0500DF057E033C57414E548D
:10F9EE002053494E2D434F532D54414E2D4154CE4D
:10F9FE00000D0A0C5752495454454E20425920527C
:10FA0E0049434841524420572E205745494C414EB8
:10FA1E0044AE0D0A005445524D494E414C205749B3
:10FA2E004454C80020425954455320465245C50DF2
:10FA3E000A0D0A4D49545320414C54414952203627
:10FA4E0038302042415349432056455253494F4E78
:10FA5E0020312E312052455620332EB20D0A434FFF
:10FA6E00505952494748542031393736204259208F
:10FA7E004D49545320494E43AE0D0A004D454D4F4E
:10FA8E0052592053495AC500002049532049542049
:10FA9E0052455455524E0D20424551204F55540D4E
:10FAAE002042524120494E54415045204745542052
:10FABE004E455854204348415241435445520D201F
:10FACE00454E440D00000000000000000000000044
:10FADE000000000000000000000000000000000018
:10FAEE000000000000000000000000000000000008
:10FAFE0000000000000000000000000000000000F8
:10FB0E0000000000000000000000000000000000E7
:10FFDE00000D0A4D455A3638303052414D202532EB
:10FFEE002E33664D487A0D0A00696E66006E616E9C
:02FFFE00000001
:020000040001F9
:10000000000E816F57C584F558C585F559C586F52D
:100010005AC587F587AF14D0010E816F84C501F5ED
:1000200085C502F586C503F587C504F569EC90F032
:1000300001C584F502C585F503C586F504C587F5B8
:10004000000E836F000E826FB8C571F5B9C572F5E9
:100050008151D8B40DD08151D8A404D0000E676F5F
:100060002B0E03D0000E676F2D0E666F66C581F5EF
:1000700084C501F585C502F586C503F587C504F578
:10008000A6EC8DF001040210D8A42CD005018151FA
:10009000D8B409D081C500F67107D8A07207000E48
:1000A000836F010E826F000E8225016E060E832182
:1000B000026EF70E036EFF0E046E30EC90F0FD0E34
:1000C0007127FF0E722355C512F556C513F5000EA4
:1000D000146E060E156E71C516F572C517F55AEC3D
:1000E0008FF0120084C501F585C502F586C503F5BC
:1000F00087C504F5A6EC8DF001500210D8A42CD0D1
:1001000005018151D8B409D081C500F67107D8A086
:100110007207000E836F010E826F000E8225016E42
:10012000060E8321026EFB0E036EFF0E046E30EC92
:1001300090F0FD0E7127FF0E722355C512F556C5BE
:1001400013F5000E146E060E156E71C516F572C508
:1001500017F55AEC8FF01200000E0501886F000EA3
:10016000896F800E8A6F3F0E8B6F000E706F000ECE
:100170006F6F84C501F585C502F586C503F587C592
:1001800004F5000E056E000E066E000E076E000EE2
:10019000086E15EC8FF0D8A00CD0BED073C588F5D2
:1001A00074C589F575C58AF576C58BF505016F4B64
:1001B000702B88C50FF589C510F58AC511F58BC55B
:1001C00012F5000E136E000E146E200E156E410E09
:1001D000166E5CEC86F00FC573F510C574F511C58D
:1001E00075F512C576F505017351845D016E745184
:1001F0008559026E75518659036E76518759046E82
:100200009AEC8FF004BECAD704500310021004E128
:10021000020E015CD8A0C2D773C528F574C529F5B4
:1002200075C52AF576C52BF584C52CF585C52DF544
:1002300086C52EF587C52FF53EEC8DF0D8A0AED73C
:1002400005018851845D016E89518559026E8A517C
:100250008659036E8B518759046E9AEC8FF004BE59
:1002600008D004500310021043E1020E015CD8B024
:100270003FD088C584F589C585F58AC586F58BC5C7
:1002800087F54AD088C528F589C529F58AC52AF594
:100290008BC52BF5000E2C6E000E2D6E200E2E6ED3
:1002A000410E2F6E78EC89F028C588F529C589F5AF
:1002B0002AC58AF52BC58BF505016F07D8A07007F5
:1002C0008851845D016E89518559026E8A51865923
:1002D000036E8B518759046E9AEC8FF004BEC9D718
:1002E00004500310021004E1020E015CD8A0C1D733
:1002F00084C528F585C529F586C52AF587C52BF55A
:1003000088C52CF589C52DF58AC52EF58BC52FF529
:100310003EEC8DF0D8A0B6D75BC569F569C56AF526
:100320000501BBBF05D0BAC562F5BBC563F504D0F6
:10033000000E636F060E626F62C56DF563C56EF5E4
:100340006D4B6E2B660E6A19D8A416D070AF0CD008
:10035000000E886F000E896F800E8A6F3F0E8B6FC4
:10036000000E706F000E6F6F670E6919D8B404D05D
:100370006F516D2770516E23000E786F000E776FEE
:1003800084C579F585C57AF586C57BF587C57CF585
:1003900088C573F589C574F58AC575F58BC576F57D
:1003A0007BD079C528F57AC529F57BC52AF57CC5AA
:1003B0002BF588C52CF589C52DF58AC52EF58BC57D
:1003C0002FF578EC89F028C541F529C542F52AC5F5
:1003D00043F52BC544F5CAEC8BF041C57DF542C50C
:1003E0007EF543C57FF544C580F57DC501F57EC525
:1003F00002F57FC503F580C504F50CEC8EF001C550
:100400006BF502C56CF579C528F57AC529F57BC56C
:100410002AF57CC52BF57DC513F57EC514F57FC582
:1004200015F580C516F588C50FF589C510F58AC57F
:1004300011F58BC512F55CEC86F00FC52CF510C5D7
:100440002DF511C52EF512C52FF5EBEC8FF028C553
:1004500079F529C57AF52AC57BF52BC57CF588C5C4
:1004600028F589C529F58AC52AF58BC52BF5000E17
:100470002C6E000E2D6E200E2E6E410E2F6E78EC1F
:1004800089F028C588F529C589F52AC58AF52BC5BF
:100490008BF50501774B782B6D51775D7851800A8C
:1004A0005C6E6E51800A5C58D8A07BD788C50FF56A
:1004B00089C510F58AC511F58BC512F5000E136EAE
:1004C000000E146EA00E156E400E166E5CEC86F0DB
:1004D0000FC57DF510C57EF511C57FF512C580F5F8
:1004E00079C528F57AC529F57BC52AF57CC52BF594
:1004F0007DC52CF57EC52DF57FC52EF580C52FF564
:100500003EEC8DF0D8B003D0000E050118D079C5AF
:1005100001F57AC502F57BC503F57CC504F57DC5FB
:1005200005F57EC506F57FC507F580C508F515EC10
:100530008FF0D8A00BD005016BB108D0000E7D6FF5
:10054000000E7E6F000E7F6F000E806F84C501F578
:1005500085C502F586C503F587C504F57DC505F596
:100560007EC506F57FC507F580C508F5F2EC87F076
:1005700001C579F502C57AF503C57BF504C57CF59F
:1005800079C528F57AC529F57BC52AF57CC52BF5F3
:10059000000E136E000E146E200E156E410E166EB8
:1005A00073C50FF574C510F575C511F576C512F54F
:1005B0005CEC86F00FC52CF510C52DF511C52EF598
:1005C00012C52FF53EEC8DF0D8A024D005016F4B5D
:1005D000702B73C50FF574C510F575C511F576C58B
:1005E00012F5000E136E000E146E200E156E410EE5
:1005F000166E5CEC86F00FC573F510C574F511C569
:1006000075F512C576F5660E05016A19D8A402D0F3
:100610006D4B6E2B73C588F574C589F575C58AF564
:1006200076C58BF56FC560F570C561F5000E0501E7
:10063000686F000E656F000E646F000E786F000E1D
:10064000776FCDD079C528F57AC529F57BC52AF510
:100650007CC52BF588C52CF589C52DF58AC52EF5E9
:100660008BC52FF578EC89F028C541F529C542F5F1
:100670002AC543F52BC544F5CAEC8BF041C57DF581
:1006800042C57EF543C57FF544C580F57DC501F5BE
:100690007EC502F57FC503F580C504F50CEC8EF030
:1006A00002BE06D0025013E10A0E015CD8B00FD092
:1006B0007DC501F57EC502F57FC503F580C504F54E
:1006C0000CEC8EF001C56BF502C56CF505D0000E83
:1006D00005016C6F090E6B6F05016851D8B461AFED
:1006E00020D0000E8225D96E060E8321DA6E2E0EE2
:1006F000DF6E824B832B7107D8A07207010E686FE3
:1007000010D0000E8225D96E060E8321DA6E300ECF
:10071000DF6E824B832B7107D8A072076407D8A0C5
:10072000650764516511D8A4ECD7000E8225D96EF7
:10073000060E8321DA6E6B51300FDF6E824B832BF6
:100740007107D8A0720779C528F57AC529F57BC548
:100750002AF57CC52BF57DC513F57EC514F57FC53F
:1007600015F580C516F588C50FF589C510F58AC53C
:1007700011F58BC512F55CEC86F00FC52CF510C594
:100780002DF511C52EF512C52FF5EBEC8FF028C510
:1007900079F529C57AF52AC57BF52BC57CF588C581
:1007A00028F589C529F58AC52AF58BC52BF5000ED4
:1007B0002C6E000E2D6E200E2E6E410E2F6E78ECDC
:1007C00089F028C588F529C589F52AC58AF52BC57C
:1007D0008BF505016007D8A06107774B782B6D5129
:1007E000775D7851800A5C6E6E51800A5C58D8B093
:1007F00008D083BF27D7835104E14B0E825DD8A078
:1008000021D7000E786F4F0E776F000E7725D96EC7
:10081000060E7821DA6EDF6A000E5C6E060E5D6EE3
:1008200082515C5E83515D5A77515C24016E785130
:100830005D20026E000E036E060E046E82C505F585
:1008400083C506F50EEC90F08251775D826F83517F
:100850007859836F8151D8B402D0010E01D0000EB7
:10086000776F786B8151D8B40BD08207D8A08307FB
:10087000000E8225D96E060E8321DA6E81C5DFF463
:100880007751715F7851725B55C512F556C513F5F6
:10089000000E8225146E060E8321156E71C516F5A5
:1008A00072C517F55AEC8FF01200080E0001B16FF7
:1008B00004012095C294CA9420912181CA8020937A
:1008C0002183CA820093BE92C692000E436F800EAF
:1008D000446F000E456F000E476F4691468B468F62
:1008E000080E0301D36F000ECE6F0C0ECF6F020EF9
:1008F000D06F020ED16FC40ED26F130E0201046FBF
:1009000004010097C696120E0201036F04010095C0
:10091000C69400910181C680150E0501A96FC60E0F
:10092000E82EFED7A92FFCD700F0C284150E0501D2
:10093000A96FC60EE82EFED7A92FFCD700F0000E37
:100940000401186F000EC16E000EC96E000E086F14
:10095000000EBF6E000EC76E000E106F000EC06E50
:10096000000EC86E0099000E0201056FBE88C69881
:100970000401009B000E0201066FBE8AC69A010E9A
:10098000D56FA00ED46FD189D18B0401009FC68E84
:10099000070E0201766F0401009DBE8CC69C260ED8
:1009A0000201076FD28F000E0501AF6F000EAE6F10
:1009B000AEC5BCF5AFC5BDF5BDC5C1F4BCC5BFF482
:1009C000BE98DF0EAE25F66EDF0EAF21F76EF86A29
:1009D000000EF8220800F5C4C0F4BE88AE4BAF2B61
:1009E000400EAF5DD8A0E4D7000EAF6F000EAE6F23
:1009F000000EAE25BC6FE00EAF21BD6FBDC5C1F4CA
:100A0000BCC5BFF4BE98DF0EAE25F66EBF0EAF219B
:100A1000F76EF86A000EF8220800F5C4C0F4BE882C
:100A2000AE4BAF2B200EAF5DD8A0E2D7000E040175
:100A3000186F1969C968000E086F0969C768000E48
:100A4000106F1169C868000E136E240E146EF40E38
:100A5000156E410E166E4351016E4451026E4551A2
:100A6000036E046A000E9EEC8CF001C50FF502C502
:100A700010F503C511F504C512F55CEC86F00FC541
:100A800028F510C529F511C52AF512C52BF5000E5C
:100A90002C6E240E2D6E740E2E6E490E2F6E78EC79
:100AA00089F028C5AAF529C5ABF52AC5ACF52BC533
:100AB000ADF5DF0E0501A16FFF0EA26FAAC5A3F56C
:100AC000ABC5A4F5ACC5A5F5ADC5A6F596EC90F003
:100AD0001F0E0201636F1E0E646F000E656F1D0E08
:100AE000676F1C0E686F000E0001D56F000ED66F89
:100AF000350ED86F040ED96F4D0EDA6F7F0EDB6F97
:100B0000020EDC6F080EDD6F200EDE6F400EDF6F11
:100B1000800ED76F820ED66F010ED56F000ED66F86
:100B2000350ED86F040ED96F4D0EDA6F7F0EDB6F66
:100B3000020EDC6F040EDD6F200EDE6F400EDF6FE5
:100B4000800ED76F820ED66F020ED56F000ED66F55
:100B5000020ED86F030ED96F060EDA6F070EDB6F29
:100B6000020EDC6F040EDD6F100EDE6F400EDF6FC5
:100B7000800ED76F820ED66F030ED56F000ED66F24
:100B8000370ED86F2A0ED96F7F0EDA6F7F0EDB6FAC
:100B9000020EDC6F040EDD6F100EDE6F400EDF6F95
:100BA000000ED76F820ED66F040ED56F000ED66F73
:100BB0004C0ED86F350ED96F7F0EDA6F7F0EDB6F5C
:100BC000010EDC6F040EDD6F000EDE6F000EDF6FB6
:100BD000800ED76F840ED66F010E0201066F020ED3
:100BE000056F150E0301CF6F550E0401596FAA0E44
:100BF000596F5991080E5D6F000E5E6F000E5F6FAA
:100C0000550E596FAA0E596F5981D68EC294150E82
:100C10000501A96FC60EE82EFED7A92FFCD700F05C
:100C2000BE826A0EE82EFED700D0C28402D0D1C4A4
:100C3000BDF50001D4B9FBD7CFC4BCF5CEB014D0FC
:100C4000190E0501BC1905E1800EBD19D8B4D0C438
:100C5000C9F2040146ABFDD746BBFED746ABFED773
:100C60000001D785D795E5D7000EC86E180E05018F
:100C7000BC1908E1800EBD19D8B4D2A203D0B7C404
:100C8000C0F40CD0190EBC1908E1800EBD19D8B4FF
:100C9000D2A203D0C7C2C0F401D0C068040146ABE1
:100CA000FDD746BBFED746ABFED70001D785D7950B
:100CB000CEB4FED7C868BDD71250800B1B6E125041
:100CC0001224216E11BE21802150D8B40DD02128CC
:100CD000D8A408D0000E0F6E000E106E000E116E1C
:100CE000000E126E118E08D0000E0F6E000E106EE8
:100CF000000E116E000E126E1650800B1B1A16504D
:100D000016241C6E15BE1C801C50D8B40DD01C2897
:100D1000D8A408D0000E136E000E146E000E156ECF
:100D2000000E166E158E08D0000E136E000E146E97
:100D3000000E156E000E166E1C50D8B403D0215054
:100D4000D8A409D0000E0F6E000E106E000E116EAA
:100D5000000E126E120015500F02F3C426F5F4C4F3
:100D600027F526501D6E1E6A1F6A206A2750226EC4
:100D7000236A246A256A14501002F3C426F5F4C4C9
:100D800027F526501D26000E1E221F222022275046
:100D90002226000E23222422252213501102F3C4FE
:100DA00026F5F4C427F526501D26000E1E221F220C
:100DB000202227502226000E2322242225221FC56E
:100DC00020F51EC51FF51DC51EF51D6A1350100226
:100DD000F3C426F5F4C427F526501D2627501E22FD
:100DE000000E1F22000E202214500F02F3C426F51D
:100DF000F4C427F526501D2627501E22000E1F2260
:100E0000000E20221FC520F51EC51FF51DC51EF5AD
:100E10001D6A13500F02F3C426F5F4C427F52650BB
:100E20001D2627501E22000E1F22000E20221550C4
:100E30001002F3C426F5F4C427F5265022262750C5
:100E40002322000E2422000E252214501102F3C486
:100E500026F5F4C427F52650222627502322000E1B
:100E60002422000E252215501102F3C426F5F4C4E5
:100E700027F52650176E2750186E196A1A6A19C579
:100E80001AF518C519F517C518F5176A175022264F
:100E900018502322195024221A502522205022268D
:100EA000000E2322242225221FC520F51EC51FF572
:100EB0001DC51EF51D6A1C5021C517F5186A172699
:100EC000000E1822820E1724266EFF0E1820276EA1
:100ED0000FD0D890223623362436253620BE2280E5
:100EE000D8901D361E361F3620362606D8A0270677
:100EF00024AEEFD7000E1C6E20AE17D0FF0E1D14CF
:100F0000176EFF0E1E14186EFF0E1F14196E7F0E43
:100F100020141A6E1750181019101A10D8B403D0D4
:100F2000010E1C6E02D022B0FBD71C50D8B41FD0CB
:100F3000010E2226000E23222422252225A017D0CE
:100F400022C517F523C518F524C519F525C51AF5C9
:100F50001A341A3219321832173217C522F518C549
:100F600023F519C524F51AC525F5264A272A27BED3
:100F70000DD0275003E12628D8A008D0000E226EFD
:100F8000000E236E800E246E7F0E20D027BE05D06B
:100F900027500EE12604D8B00BD0000E226E000EB2
:100FA000236E000E246E000E256E000E1B6E0FD0F9
:100FB00026C521F5FF0E2216FF0E23167F0E2416DE
:100FC000000E251621B0248ED8902130256E1B509E
:100FD000251222C50FF523C510F524C511F525C529
:100FE00012F512000450800B0D6E045004240F6E95
:100FF00003BE0F800F50D8B40DD00F28D8A408D04E
:10100000000E016E000E026E000E036E000E046EE6
:10101000038E06D0000E016E000E026E000E036EEF
:10102000000E046E0850800B0E6E0D500E18D8A4E2
:101030000D8C085008240E6E07BE0E800E50D8B4DA
:101040000DD00E28D8A408D0000E056E000E066E36
:10105000000E076E000E086E078E06D0000E056E9D
:10106000000E066E000E076E000E086E0F500E5C2E
:10107000D8B022D00DAC02D0800E0D1A0FC510F5DD
:101080000EC50FF510C50EF501C510F505C501F526
:1010900010C505F502C510F506C502F510C506F523
:1010A00003C510F507C503F510C507F504C510F510
:1010B00008C504F510C508F5000E106E0F500EC5DA
:1010C00009F50A6A095E000E0A5A0ABE2CD00A50B7
:1010D00004E11A0E095CD8A026D0015002100310BA
:1010E0000410D8B402D0010E01D0000E106E000E14
:1010F000016E000E026E000E036E000E046E0EC531
:101100000FF515D010A005D0D89010300109106E41
:1011100002D0D890103201B0108E04340432033261
:10112000023201320F2A0E500F5CD8A0EBD70DBC53
:1011300028D00F50D8A409D0000E016E000E026E08
:10114000000E036E000E046E1200055001260650BC
:101150000222075003220850042204A071D010A0DC
:1011600005D0D89010300109106E02D0D8901032FE
:1011700001B0108E043404320332023201320F2ADD
:101180005FD00550015C06500258075003580450C8
:10119000800A096E0850800A0958D8B025D001503D
:1011A000055C096E025006580A6E035007580B6E14
:1011B000045008580C6EFF0E0924016EFF0E0A2021
:1011C000026EFF0E0B20036EFF0E0C20046E800ECD
:1011D0000D1A106C1050D8A40FD0010E0126000E6D
:1011E00002220322042208D00550015E0650025A52
:1011F0000750035A0850045A0150021003100410FB
:10120000D8A41CD01050D8A419D0000E016E000E26
:10121000026E000E036E000E046E1200D8900136AE
:1012200002360336043610BE018010A002D0D880EA
:1012300001D0D89010360F50D8A40F0603AEEED7C9
:10124000000E0E6E10AE0BD010C509F57F0E0916FC
:10125000D8B403D0010E0E6E02D001B0FBD70E50F1
:10126000D8B420D0010E0126000E0222032204224F
:1012700004A018D001C509F502C50AF503C50BF590
:1012800004C50CF50C340C320B320A32093209C594
:1012900001F50AC502F50BC503F50CC504F50F28C9
:1012A000D8A40F2A0F28D8B403D00F50D8A40DD03B
:1012B000000E016E000E026E000E036E000E046E34
:1012C0000F50D8A402D0000E0D6E0FA002D0038ED6
:1012D00001D0039ED8900F30046E0DBE048E01C560
:1012E00001F502C502F503C503F504C504F51200B6
:1012F0002B50800B386E2B502B243F6E2ABE3F8024
:101300003F50D8B40DD03F28D8A408D0000E286E86
:10131000000E296E000E2A6E000E2B6E2A8E06D04D
:10132000000E286E000E296E000E2A6E000E2B6E27
:101330002F50800B381A2F502F24406E2EBE408025
:101340004050D8B40DD04028D8A408D0000E2C6E40
:10135000000E2D6E000E2E6E000E2F6E2E8E06D0FD
:10136000000E2C6E000E2D6E000E2E6E000E2F6ED7
:101370002C502D102E102F10D8A417D0000E286E30
:10138000000E296E000E2A6E000E2B6E800E2A12A1
:101390007F0E2B1238502B1228C528F529C529F5A8
:1013A0002AC52AF52BC52BF512003F50D8A409D029
:1013B000000E286E000E296E000E2A6E000E2B6E97
:1013C000120040503FC530F5316A305E000E315A90
:1013D0007F0E3024396E000E31203A6E28C534F568
:1013E00029C535F52AC536F52BC537F5000E286E0B
:1013F000000E296E000E2A6E000E2B6E000E3B6E44
:10140000000E3C6E000E3D6E000E3E6E000E406EF5
:1014100028D04050D8B411D0D8903436353636362E
:101420003736D890283629362A362B363EBE2880C5
:10143000D8903B363C363D363E362C50345C2D50F1
:1014400035582E5036582F503758D8A009D03E8CDA
:101450002C50345E2D50355A2E50365A2F50375A54
:10146000402A190E4064D5D7345035103610371045
:10147000D8B411D03B800FD0D890283629362A36E0
:101480002B363EBE2880D8903B363C363D363E3625
:101490003906D8A03A062AAEEFD7000E406E3EAE0F
:1014A00017D0FF0E3B14306EFF0E3C14316EFF0E52
:1014B0003D14326E7F0E3E14336E305031103210B8
:1014C0003310D8B403D0010E406E02D028B0FBD741
:1014D0004050D8B41FD0010E2826000E29222A22FF
:1014E0002B222BA017D028C530F529C531F52AC5E8
:1014F00032F52BC533F533343332323231323032B8
:1015000030C528F531C529F532C52AF533C52BF587
:10151000394A3A2A3ABE10D03A5003E13928D8A0C5
:101520000BD0000E3A6E3968000E286E000E296E40
:10153000000E2A6E000E2B6E3ABE05D03A5011E115
:101540003904D8B00ED0000E3A6E000E396E000E7F
:10155000286E000E296E000E2A6E000E2B6E000EF5
:10156000386E39C53FF53FA002D02A8E01D02A9EA1
:10157000D8903F302B6E0ED78EC5D9F48FC5DAF4D4
:10158000DEC4F6F4DDC4F7F4000EF86E0800F55082
:10159000250AD8A4EAD08EC5D9F48FC5DAF4DE2A9C
:1015A000000EDD22000EB96F000EB86FB8C5BEF593
:1015B000BA69BB698EC507F58FC508F590C509F5F1
:1015C00091C50AF569EC8EF007C5B8F508C5B9F5FF
:1015D0000501B9AF05D0BE81B86DB91FD8B0B92B20
:1015E0008EC5D9F48FC5DAF4DEC4F6F4DDC4F7F4A1
:1015F000000EF86E0800F5502E0AD8A415D08EC53E
:10160000D9F48FC5DAF4DE2A000EDD228EC507F587
:101610008FC508F590C509F591C50AF569EC8EF0FE
:1016200007C5BAF508C5BBF58EC5D9F48FC5DAF480
:10163000DEC497F5DDC498F597C5F6F498C5F7F4C0
:10164000000EF86E0800F5C496F508D0974B982B5D
:1016500018D06C0E01D0000E966F13D00501965174
:101660005E6E5F6A5F50000AD8A4F5D75E504C0AE0
:10167000D8B4ECD72A0AD8B4ECD70A0AD8B4E6D73B
:10168000EAD797C5F6F498C5F7F4000EF86E08008F
:10169000F550660AD8B41AD060D090C5D9F491C577
:1016A000DAF4DFC45EF5040EDE26DFC45FF5000E5B
:1016B000DD225EC5D9F45FC5DAF4DEC492F5DEC47E
:1016C00093F5DEC494F5DEC495F50ED096515E6EAA
:1016D0005F6A5F50000AD8A407D05E504C0AD8B4A5
:1016E000DCD7200AD8B4D9D7010E97255E6E000E3C
:1016F00098215F6E8EC5D9F48FC5DAF45EC5DEF42D
:101700005FC5DDF418D08CC555F58DC556F592C56D
:1017100057F593C558F594C559F595C55AF597C52C
:10172000F6F498C5F7F4000EF86E0800F5C45BF502
:1017300000EC80F0120097C5F6F498C5F7F4000E9F
:10174000F86E0800F5505E6E5F6A5F50000AD8A41C
:1017500004D05E50660AD8B4D6D78EC5D9F48FC5EA
:10176000DAF4DE2A000EDD2212008EC5D9F48FC510
:10177000DAF4DEC4F6F4DDC4F7F4000EF86E080007
:10178000F550026E036A8CC504F58DC505F5C5ECF0
:101790008EF0E3D7B0C551F5B1C552F5B2C553F5DA
:1017A000B3C554F541C551F542C552F543C553F58E
:1017B00044C554F5810E456EFF0E466E51C547F582
:1017C00052C548F553C549F554C54AF5180E05D01C
:1017D000D8904A32493248324732E82EF9D747503A
:1017E00045244F6E000E4620506E50BE0FD0505014
:1017F00004E1170E4F5CD8A009D041C541F542C5A0
:1018000042F543C543F544C544F5120050BE5BD0D4
:101810004FC545F5FF0E466EFF0E476E7F0E486EB4
:10182000000E496E456601D007D04934493248322E
:1018300047324632452EF6D746C54BF547C54CF5DF
:1018400048C54DF549C54EF54B505114456E4C50A9
:101850005214466E4D505314476E4E505414486EF9
:101860004550461047104810D8B4C7D751C545F564
:1018700052C546F553C547F554C548F5200E05D069
:10188000D8904832473246324532E82EF9D7455093
:10189000D8B408D04B5051264C5052224D505322B0
:1018A0004E5054224B1C456E4C1C466E4D1C476ED0
:1018B0004E1C486E4550511646505216475053160E
:1018C0004850541632D051C545F552C546F553C55A
:1018D00047F554C548F5200E05D0D8904832473218
:1018E00046324532E82EF9D7456608D0000E516ED3
:1018F000000E526E000E536E000E16D0D89051346A
:10190000456E5234466E5334476E5434486E4550DB
:10191000461047104810D8B408D0000E516E000E83
:10192000526E800E536EBF0E546E51C541F552C5B6
:1019300042F553C543F554C544F51200096E0950EC
:10194000D8A404AE1AD001C505F502C506F503C535
:1019500007F504C508F5051E061E071E081E052A04
:10196000000E06220722082205C50BF506C50CF558
:1019700007C50DF508C50EF508D001C50BF502C564
:101980000CF503C50DF504C50EF50150021003104A
:101990000410D8A409D0000E016E000E026E000ED5
:1019A000036E000E046E1200960E0A6E06D00A2A0E
:1019B000D8900E320D320C320B32000E0B14056E25
:1019C000000E0C14066E000E0D14076EFE0E0E14A3
:1019D000086E0550061007100810D8B40DD0E7D7D0
:1019E0000A2A010E0B26000E0C220D220E22D89080
:1019F0000E320D320C320B32000E0B14056E000E3F
:101A00000C14066E000E0D14076EFF0E0E14086EF9
:101A10000550061007100810D8B407D0E1D70A0601
:101A2000D8900B360C360D360E360DBE03D0020E96
:101A30000A60F5D70AA00D9ED8900A320AC505F5AE
:101A4000066A076A086A05C508F5076A066A056A2C
:101A500005500B1206500C1207500D1208500E12B2
:101A60000950D8A404AE01D00E8E0BC501F50CC5EB
:101A700002F50DC503F50EC504F51200000E28147D
:101A8000306E000E2914316E800E2A14326E7F0ED5
:101A90002B14336E3050311032103310D8A408D0CC
:101AA000000E286E000E296E000E2A6E000E2B6EA0
:101AB000000E2C14306E000E2D14316E800E2E147C
:101AC000326E7F0E2F14336E3050311032103310BF
:101AD000D8A408D0000E2C6E000E2D6E000E2E6EB7
:101AE000000E2F6E2BAE09D0286C291ED8B0292AE3
:101AF0002A1ED8B02A2A800E2B562FAE09D02C6C65
:101B00002D1ED8B02D2A2E1ED8B02E2A800E2F566C
:101B1000000E281A000E291A000E2A1A800E2B1AFF
:101B2000000E2C1A000E2D1A000E2E1A800E2F1ADF
:101B30002C50285C2D5029582E502A582F502B58A5
:101B4000D8B002D0D8901200D8801200B4C50BF5DE
:101B5000B5C50CF5B6C50DF5B7C50EF501C50BF548
:101B600002C50CF503C50DF504C50EF50BC505F54D
:101B70000CC506F50DC507F50EC508F5180E05D000
:101B8000D8900832073206320532E82EF9D70550D0
:101B9000096E0A6A09500A10D8A419D0D8900B34DB
:101BA000056E0C34066E0D34076E0E34086E05504B
:101BB000061007100810D8A405D0000E026E020E01
:101BC000016E1200000E026E030E016E1200092853
:101BD0000A10D8A41CD00BC505F50CC506F50DC51B
:101BE00007F50EC508F5090ED890053606360736F6
:101BF0000836E82EF9D70550061007100810D8A4AB
:101C000002D0010E01D0000E016E026A1200000E19
:101C1000026E040E016E1200033404340A6E0A5080
:101C2000D8A409D0000E016E000E026E000E036EE5
:101C3000000E046E120001C505F502C506F503C5C8
:101C400007F504C508F5200E05D0D89008320732F4
:101C500006320532E82EF9D70550096E038EFF0EC5
:101C60000116FF0E0216FF0E0316000E0416960E46
:101C70000A5E0AAE0DD00A50800A970FD8A0D2D7BC
:101C8000D89004320332023201320A3EF9D70DD025
:101C90001F0E0A6407D0C6D7D89001360236033625
:101CA00004360A060A50D8A4F7D70950D8B408D089
:101CB000041E031E021E016C000E022203220422D7
:101CC00001C501F502C502F503C503F504C504F518
:101CD0001200000E0F6E000E0E6E07C5D9F408C577
:101CE000DAF4DEC4F6F4DDC4F7F4000EF86E080092
:101CF000F5502A0AD8A433D007C5D9F408C5DAF4B8
:101D0000DE2A000EDD2209C5D9F40AC5DAF4DFC4E3
:101D10000BF5020EDE26DFC40CF5000EDD220BC52E
:101D2000D9F40CC5DAF4DEC40EF5DDC40FF528D005
:101D30000EC501F50FC502F5000E046E0A0E036E06
:101D4000A9EC90F00D5001240E6E000E02200F6ED3
:101D500007C5D9F408C5DAF4DE2A000EDD2207C56E
:101D6000D9F408C5DAF4DEC4F6F4DDC4F7F4000EE5
:101D7000F86E0800F550D00F0D6E090E0D64D8D71F
:101D80000EC507F50FC508F5120004500510D8B4AC
:101D900004D004500510D8A404D00250BCEC90F03C
:101DA000120020EE0AF00450D9260550DA22DE5047
:101DB000DE10D8B416D020EE0AF00450D926055013
:101DC000DA2210EE03F00450E1260550E222DE5044
:101DD000E65CE650800A0A6EDE50800A0A58D8B0E7
:101DE000120020EE03F00450D9260550DA22DEC49A
:101DF00006F5DDC407F504C5D9F405C5DAF4DEC47B
:101E000008F5DDC409F506500824D96E07500920ED
:101E1000DA6E02C5DFF420EE03F00450D926055037
:101E2000DA22DE2A000EDD221200000E0114096EF5
:101E3000000E02140A6E800E03140B6E7F0E041443
:101E40000C6E09500A100B100C10D8A408D0000E0C
:101E5000016E000E026E000E036E000E046E000E88
:101E60000514096E000E06140A6E800E07140B6E20
:101E70007F0E08140C6E09500A100B100C10D8A419
:101E800008D0000E056E000E066E000E076E000EE6
:101E9000086E055001180AE10650021807E10750C4
:101EA000031804E108500418D8B402D0D8901200E6
:101EB000D8801200BEA10AD014C50BF515C50CF5CB
:101EC00012C50DF513C50EF54DEC90F017BE05D0FB
:101ED00016C51BF517C51CF504D0000E1C6E000EB0
:101EE0001B6E000E1A6E000E196E0CD0000E036EE3
:101EF000200E026E12C504F513C505F5C5EC8EF073
:101F0000194A1A2A1B50195C1A50800A186E1C5064
:101F1000800A1858D8A0EAD70501BEB1120014C52E
:101F20000BF515C50CF512C50DF513C50EF54DECE9
:101F300090F0120004BE07D00450031002101DE1FF
:101F40000104D8B01AD001C505F502C506F503C5D0
:101F500007F504C508F5051E061E071E081E052AFE
:101F6000000E06220722082205C501F506C502F566
:101F700007C503F508C504F5120001C501F502C542
:101F800002F503C503F504C504F512009BC59FF5D2
:101F90009CC5A0F50FD099C58CF59AC58DF59F0EFF
:101FA00005018E6F050E8F6F9DC590F59EC591F54D
:101FB000BCEC8AF09FC5F6F4A0C5F7F4000EF86EED
:101FC0000800F5500009D8A4E6D7000E05019A6F65
:101FD000000E996F1200000E2C1A000E2D1A000E22
:101FE0002E1A800E2F1A28C501F529C502F52AC51B
:101FF00003F52BC504F52CC505F52DC506F52EC535
:1020000007F52FC508F5F2EC87F001C528F502C5E4
:1020100029F503C52AF504C52BF5120003C509F5FA
:1020200004C50AF501C507F502C508F510D009C5B4
:10203000D9F40AC5DAF4DF500B6E094A0A2A07C53B
:10204000D9F408C5DAF40BC5DFF4074A082A0506F7
:10205000D8A006060528EBE10628D8B41200E7D779
:1020600003C505F504C506F501C507F502C508F564
:1020700005C5F6F406C5F7F4054A062A000EF86E03
:1020800007C5D9F408C5DAF4074A082A0800F5C4D8
:10209000DFF4DF50D8B41200EBD7000E116E000E43
:1020A000106E0BD00FC502F5036A0DC504F50EC501
:1020B00005F5C5EC8EF0104A112A10500B24D96E8C
:1020C00011500C20DA6EDF500F6E0F50D8B4120092
:1020D000E9D70150021003100410D8B408D0000E44
:1020E000011A000E021A000E031A800E041A01C50E
:1020F00001F502C502F503C503F504C504F5120098
:1021000001EE00F2500EEE6AE806FDE101EEB0F1DC
:102110000F0EEE6AE806FDE10401080E5D6F000E89
:102120005E6F000E5F6F000155EF84F0A30EA76F86
:10213000050EA86F000E996F000E9A6FA1C59BF552
:10214000A2C59CF5A70E9D6F050E9E6FC6EC8FF085
:10215000120001500302F3C405F5F4C406F5015062
:102160000402F350062602500302F350062605C56A
:1021700001F506C502F51200016EB7A2FED701C532
:06218000C9F2120011007B
:020000040020DA
:10000000FFFFFFFFFFFFFFFFFFFFFFFFFFFFFFFF00
:10001000FFFFFFFFFFFFFFFFFFFFFFFFFFFFFFFFF0
:10002000FFFFFFFFFFFFFFFFFFFFFFFFFFFFFFFFE0
:10003000FFFFFFFFFFFFFFFFFFFFFFFFFFFFFFFFD0
:020000040030CA
:080000008CFFFFF79FFFFFFFDB
:01000900FFF7
:00000001FF
