:0400000085EF00F098
:1000080061486148614861486148614861486148A0
:100018006148614861486148614861486148614890
:100028006148614861486148614861486148614880
:100038006148614861486148614861486148614870
:100048006148614861486148614861486148614860
:100058006148614861486148614861486148614850
:100068006148614861486148614861486148614840
:100078006148614861486148420061486148614897
:100088006148614861486148614861486148614820
:100098006148614861486148420061486148614877
:1000A8006148614861486148614861486148614800
:1000B80061486148614861486148614861486148F0
:1000C80061486148614861486148614861486148E0
:1000D80061486148614861486148614861486148D0
:1000E8004200614861486148614861486148614827
:1000F80061486148614861486148614861486148B0
:06010800FF0080EF90F003
:10B86E0000000000000000000000000000000000CA
:10B87E0000000000000000000000000000000000BA
:10B88E0000000000000000000000000000000000AA
:10B89E00000000000000000000000000000000009A
:10B8AE00000000000000000000000000000000008A
:10B8BE00000000000000000000000000000000007A
:10B8CE00000000000000000000000000000000006A
:10B8DE00000000000000000000000000000000005A
:10B8EE00000000000000000000000000000000004A
:10B8FE00000000000000000000000000000000003A
:10B90E000000000000000000000000000000000029
:10B91E000000000000000000000000000000000019
:10B92E000000000000000000000000000000000009
:10B93E0000000000000000000000000000000000F9
:10B94E0000000000000000000000000000000000E9
:10B95E0000000000000000000000000000000000D9
:10B96E0000000000000000000000000000000000C9
:10B97E0000000000000000000000000000000000B9
:10B98E0000000000000000000000000000000000A9
:10B99E000000000000000000000000000000000099
:10B9AE00000000000000000000C5464F5254C8279A
:10B9BE004B19FA1F1681A001780000284329204652
:10B9CE006F72746820496E74657265737420477265
:10B9DE006F75702C203139373984544153CB01485F
:10B9EE00152A136C0000000000000000000000008B
:10B9FE000000000000000000000000000000000039
:10BA0E000000000000000000000000000000000028
:10BA1E000000000000000000000000000000000018
:10BA2E000000000000000000000000000000000008
:10C86E0000017E1FA0017E1FD068000000000000A6
:10C87E007F01000F300FFE0F30001F0000018301FB
:10C88E00830158008400043233A700E7012006A676
:10C89E0000E6013736DEF20808DFF2EE00DFF0EEDA
:10C8AE00006E0001834C49D40000104BDEF20808E4
:10C8BE00DFF2A600E6017E103201105BDEF208DF29
:10C8CE00F24FE6017E10320187455845435554C557
:10C8DE001043107330EE0031317E103C018642520F
:10C8EE00414E43C81067109A87304252414E43C89A
:10C8FE00107C109332331B26142512DEF2E603A6AB
:10C90E0002DBF399F2D7F397F27E103401DEF208D0
:10C91E0008DFF27E10340186284C4F4F50A9108745
:10C92E0010C14FC601200E87282B4C4F4F50A91017
:10C93E00B610D232334D2A168D090DE205A2042A05
:10C94E00BA2013DEF4EB03A902E703A702398DF335
:10C95E00E005A2042BA508080808DFF420AF842800
:10C96E00444FA910C61106DEF409090909DFF43295
:10C97E0033A702E7033233A704E7057E103481C9DB
:10C98E0010FD1123DEF408087E102E854449474918
:10C99E00D4111D113430A60380302B1B810A2B0AB3
:10C9AE0081112B13812B2A0F8007A1012A09C601A1
:10C9BE00A703E7017E10345F313130E70020F386A4
:10C9CE002846494E44A9112A11690101CE00E0C63C
:10C9DE000432A700085A26F9DEE0E600D7E6C43F87
:10C9EE0008DFE0DEE2A60008DFE4112622DEE4A680
:10C9FE000008DFE4DEE0E60008DFE05D2A0EC47F1B
:10CA0E00112715EE0026D34F5F7E10321127DEDE82
:10CA1E00E0E600082AFB20EB96E0D6E1CB04890085
:10CA2E00373696E6364F36C6017E1032364F36C64C
:10CA3E00017E103287454E434C4F53C5115E11DFB8
:10CA4E00313330EE007F00E0A600272411260608C1
:10CA5E007C00E020F396E0364F36A600271911270A
:10CA6E0006087C00E020F3D6E04F37365C7E1032AD
:10CA7E00D6E037365C2002D6E03736D6E07E10326E
:10CA8E0084454D49D411D312283232BD230ADEF625
:10CA9E006C1B26026C1A7E1034834B45D9121F1262
:10CAAE0040BD2321364F367E1034893F5445524DBA
:10CABE00494E41CC12381257BD233A5F7E10328256
:10CACE0043D212491265BD23477E103485434D4F24
:10CADE0056C5125E1275CE00E0C60632A700085A81
:10CAEE0026F996E0D6E1C001820097E0D7E1251045
:10CAFE00DEE4A60008DFE4DEE2A70008DFE220E2C3
:10CB0E007E10348255AA126B12A98D0531317E101A
:10CB1E00328610364F5F30660566066A002B0A2491
:10CB2E0004EB04A903465620EE31398255AF12A20A
:10CB3E0012D186113630A603E604A101220925047E
:10CB4E00E10224030C2005E002A2010D690669052D
:10CB5E006A002706594924E220ED31313131317E08
:10CB6E00148383414EC412CA1309323330E401A434
:10CB7E00007E1028824FD21301131A323330EA018D
:10CB8E00AA007E102883584FD21313132C32333041
:10CB9E00E801A8007E1028835350C01324133E30A2
:10CBAE00DFE0CE00E07E102E835350A11336134FDC
:10CBBE00DEF6EE06357E1034835250A11347135F16
:10CBCE00FE1014DFF47E1034823BD31357136EDE47
:10CBDE00F40808DFF4EE007E1036854C454156C54C
:10CBEE0013671383DEF4A602E603A704E7057E109F
:10CBFE0034823ED213791397DEF40909DFF432330F
:10CC0E00A702E7037E10348252BE139013ADDEF4FA
:10CC1E00A602E6030808DFF47E103281D213A613B3
:10CC2E00C0DEF408087E102E8230BD13BA13CE304B
:10CC3E004F5FEE0026015C307E10288230BC13C799
:10CC4E0013E1308680A40027064FC6017E10285FB0
:10CC5E007E102881AB13DA13F8323330EB01A900C2
:10CC6E007E10288244AB13F21409300CC604A603BE
:10CC7E00A907A707095A26F6313131317E103485BE
:10CC8E004D494E55D314021428306001250460001E
:10CC9E00200263007E103486444D494E55D3141E37
:10CCAE001441306300630163026003260A6C02269E
:10CCBE00066C0126026C007E1034844F5645D21449
:10CCCE0036146230A602E6037E10328444524FD0F0
:10CCDE001459147331317E103484535741D0146A71
:10CCEE001481323330EE0031313736DFE0CE00E0E2
:10CCFE007E102E834455D01478149A323337367EF4
:10CD0E001032822BA1149214A830EE00313132333E
:10CD1E00EB01E701A900A7007E103486544F474768
:10CD2E004CC514A1152A146014E4132A147F15049B
:10CD3E00136C81C014BA14D730EE0031317E102E30
:10CD4E008243C014D114E630EE004FE60031317E3E
:10CD5E00103281A114DF14F730EE0031317E10262F
:10CD6E008243A114F1150630EE0031313133E70064
:10CD7E007E1034C1BA14FF152A18DA189616B61496
:10CD8E00D516A814F51DDB195B19AADEF40909DF07
:10CD9E00F496F2D6F3A702E703DEF07E1036C1BB9F
:10CDAE001512152A19021937136C196F194D136CB8
:10CDBE0088434F4E5354414ED4153D152A1DDB1951
:10CDCE006F174D19AADEF0A602E6037E10328856C2
:10CDDE0041524941424CC5154F152A155A19AA966A
:10CDEE00F0D6F1CB0289007E103284555345D21510
:10CDFE006D152A155A19AADEF0A602E603DBF7997D
:10CE0E00F67E103281B015891564000081B115A32C
:10CE1E001564000181B215AB1564000281B315B320
:10CE2E00156400038242CC15BB156400208546496B
:10CE3E005253D415C315643000854C494D49D41551
:10CE4E00CC1564321085422F4255C615D815640094
:10CE5E008085422F5343D215E415640008872B4F6B
:10CE6E0052494749CE15F0152A1049100013F613F2
:10CE7E006C8253B015FC159600068252B016101532
:10CE8E00960008835449C216191596000A8557490B
:10CE9E004454C816221596000C875741524E494EDF
:10CEAE00C7162C1596000E8546454E43C5163815E9
:10CEBE009600108244D016461596001288564F439F
:10CECE002D4C494ECB16521596001483424CCB1660
:10CEDE005B159600168249CE166A15960018834F7A
:10CEEE0055D416741596001A835343D2167D159693
:10CEFE00001C864F46465345D416871596001E874E
:10CF0E00434F4E544558D4169115960020874355DD
:10CF1E005252454ED4169E159600228553544154B6
:10CF2E00C516AC1596002484424153C516BA159603
:10CF3E000026834450CC16C61596002883464CC452
:10CF4E0016D11596002A834353D016DB1596002C66
:10CF5E008252A316E51596002E83484CC416EF1583
:10CF6E0064013087434F4C554D4ED316F81596003D
:10CF7E00348231AB1702152A15AF13F6136C8232B9
:10CF8E00AB1710152A15B713F6136C84484552C506
:10CF9E00171D152A165714D5136C85414C4C4FD4BA
:10CFAE00172A152A165714A6136C81AC1739152A91
:10CFBE00173114F515B71741136C8243AC17491589
:10CFCE002A1731150415AF1741136C81AD1759157A
:10CFDE002A142613F6136C81BD176A152A176E13C1
:10CFEE00CC136C81BC17761788323330A100312EEA
:10CFFE00092604E10122035F2002C6014F317E1093
:10D00E003281BE1782152A147F1786136C83524FF6
:10D01E00D417A0152A1395147F13AB147F136C85A8
:10D02E0053504143C517AC152A15C81226136C83ED
:10D03E004D49CE17BE152A1460146017A410910026
:10D04E0004147F1471136C834D41D817CE152A1416
:10D05E00601460178610910004147F1471136C8491
:10D06E002D4455D017E6152A1498109100041498E3
:10D07E00136C8854524156455253C517FE152A1447
:10D08E007F146013F610597F146014E41786109104
:10D09E00FFF1147F1471136C864C41544553D41810
:10D0AE0011152A16B614D514D5136C834C46C11817
:10D0BE0037152A105904176E136C834346C1184A4C
:10D0CE00152A15B7176E136C834E46C11859152ABB
:10D0DE00105905176E15AF1426181C136C83504685
:10D0EE00C11867152A15AF181C10590513F6136CC5
:10D0FE0084214353D0187C152A133C16EB14F513D8
:10D10E006C863F4552524FD2188F152A147F1091BC
:10D11E0000081D76108500041471136C853F434F73
:10D12E004DD018A0152A16C214D513CC10591118AB
:10D13E00A9136C853F455845C318BB152A16C21452
:10D14E00D510591218A9136C863F50414952D31865
:10D15E00D2152A176E10591318A9136C843F435316
:10D16E00D018E7152A133C16EB14D5176E10591468
:10D17E0018A9136C883F4C4F4144494EC718FB15F4
:10D18E002A167014D513CC10591618A9136C874390
:10D19E004F4D50494CC51913152A18C313AB1722FE
:10D1AE001498139514D5174D136CC1DB192D152A30
:10D1BE0015A716C214F5136C81DD1949152A1059DD
:10D1CE00C016C214F5136C86534D554447C51957F6
:10D1DE00152A184010592014C3136C834845D819CA
:10D1EE0066152A10591016CD14F5136C8744454355
:10D1FE00494D41CC197A152A10590A16CD14F5133A
:10D20E006C87283A434F4445A9198B152A13AB173F
:10D21E002218401882185F14F5136CC53B434F4417
:10D22E00C519A0152A1902193719AA196F194D1AFD
:10D23E00EC136C873C4255494C44D319BA152A1548
:10D24E00A7155A136C85444F4553BE19D2152A1390
:10D25E00AB17221840188214F519AA96F2D6F3DEEF
:10D26E00F40909DFF4A702E703DEF00808DFE0EEB9
:10D27E0000DFF24FC602DBE199E037367E103A85C9
:10D28E00434F554ED419E4152A14981715147F14CC
:10D29E00E4136C84545950C51A1E152A18051091A2
:10D2AE00001D146013F6147F1104112114E410599B
:10D2BE007F1307122610BFFFF3108500041471139D
:10D2CE006C892D545241494C494EC71A32152A14B5
:10D2DE009815A711041460146013F615AF176E1489
:10D2EE00E415C8176E1091000813811085000615FD
:10D2FE00AF176E10BFFFE0136C84282E22A91A60A0
:10D30E00152A13BE17221A261498171513AB13F6E7
:10D31E0013951A39136CC22EA21A98152A10592277
:10D32E0016C214D51091001419371A9F1C4B1731C1
:10D33E0014E4171517411085000A1C4B17311A26D5
:10D34E001A39136C863F53544143CB1AB5152A1024
:10D35E005912160614D515B7176E133C178615AF4E
:10D36E0018A9133C173110598013F6178610910027
:10D37E000615B718A9136C864558504543D41AE3C1
:10D38E00152A146013F614601104123E14981059E5
:10D39E000E160614D5177A1091001F147110590825
:10D3AE0014601121177A149813AB15B7176E13F674
:10D3BE001395176E10850027149810590D177A10B3
:10D3CE0091000E1381147115C815A7108500041451
:10D3DE00981121150415A71121171514F5122610F1
:10D3EE00BFFFA91471136C8551554552D91B1615E3
:10D3FE002A162814D5170C14D51B1F15A716791429
:10D40E00F5136CC1801B86152A167014D510910069
:10D41E002615AF167014A615A7167914F5167014E6
:10D42E00D515F8208F13CC1091000818DA13AB1411
:10D43E00711085000613AB1471136C8446494CCCE5
:10D44E001BA2152A147F1395146015041498171532
:10D45E0013AB15AF176E1273136C8545524153C53E
:10D46E001BDA152A15A71BE1136C86424C414E4B55
:10D47E00D31BF9152A15C81BE1136C84484F4CC4F5
:10D48E001C09152A1049FFFF16FE14A616FE14D508
:10D49E001504136C835041C41C1A152A17311059E8
:10D4AE004413F6136C84574F52C41C33152A16704E
:10D4BE0014D51091000C167014D521EC10850006B1
:10D4CE00162814D5167914D513F6147F11DD1731DD
:10D4DE001059221C12167914A61460176E13951388
:10D4EE00BE1731150413F61731171513AB1273133C
:10D4FE006C88284E554D424552A91C44152A1715C5
:10D50E001498139514E416CD14D511321091002CE5
:10D51E00147F16CD14D512A7147117B216CD14D5CB
:10D52E0012A7140716D714D517151091000815AFAA
:10D53E0016D714A613AB1085FFC613AB136C864E0D
:10D54E00554D4245D21C90152A15A715A717B21492
:10D55E0098171514E410592D177A1498139513F67D
:10D56E001049FFFF16D714F51C9B149814E415C828
:10D57E00176E10910015149814E410592E176E158D
:10D58E00A718A915A71085FFDD147113AB10910014
:10D59E0004143F136C852D46494EC41CDD152A1507
:10D5AE00C81C4B173116A814D514D511671498132F
:10D5BE00CC1091000A1471173118401167136C8743
:10D5CE002841424F5254A91D34152A1F7A136C85D7
:10D5DE004552524FD21D5E152A164214D513DF1036
:10D5EE009100041D6817311A261A391A9F04072054
:10D5FE003F202285134D167914D5167014D51F4C65
:10D60E00136C834944AE1D6E152A1C391059201017
:10D61E00595F1BE11498188218501460176E1C394C
:10D62E00147F12731C391A2610591F13071A391733
:10D63E00C6136C864352454154C51DA1152A1D3C87
:10D64E001091001A14711A9F080772656465663A84
:10D65E0020186D1DA7105904228517C6173114986E
:10D66E0014E4163414D517D41715174114981059FD
:10D67E00A014C3173115AF176E10598014C318407C
:10D68E00174D16B614D514F517311722174D136C06
:10D69E00C95B434F4D50494C45DD1DD2152A1D3CEB
:10D6AE0013CC15A718A91471185F174D136CC74C1E
:10D6BE004954455241CC1E2F152A16C214D510912D
:10D6CE00000819371049174D136CC8444C4954457E
:10D6DE005241CC1E4D152A16C214D51091000814B5
:10D6EE007F1E571E57136C89494E54455250524552
:10D6FE00D41E69152A1D3C1091001C16C214D51794
:10D70E00861091000A185F174D10850006185F10DD
:10D71E00711085001A17311CE616D714D51715107F
:10D72E009100081E741085000614711E571AEC1015
:10D73E0085FFC489494D4D4544494154C51E861542
:10D74E002A184010594014C3136C8A564F43414255
:10D75E00554C4152D91ED2152A19DC104981A017F9
:10D76E004D16B614D5185F174D1731166614D5170A
:10D77E004D166614F519EC172216A814F5136C8BBA
:10D78E00444546494E4954494F4ED31EE9152A1673
:10D79E00A814D516B614F5136CC1A81F1E152A10A1
:10D7AE0059291C4B136C84515549D41F38152A1511
:10D7BE00A7167014F5194D135D12631B8E1E92166B
:10D7CE00C214D513CC109100081A9F03204F4B1092
:10D7DE0085FFE68541424F52D41F45152A134D1938
:10D7EE00951AEC217F12631A9F08466F7274682D8A
:10D7FE00363801501F2C1F4C84434F4CC41F721FD0
:10D80E00A08E0182CE203F09A600368C1FFC26F783
:10D81E008E010FFE1022FF0134FE1024FF0132FE96
:10D82E001020FF0114FE101EFF0112FE101CFF013E
:10D83E00108E010FCE101C09A600368C101226F782
:10D84E00BE1012FE1010DFF6CE1F7ADFF2010101BC
:10D85E00CE0000DFEACE0000DFEC7E135F3000303A
:10D86E000000000000C5464F5254C8274B19FA1F3E
:10D87E001681A00178000028432920466F72746833
:10D88E0020496E7465726573742047726F75702CC3
:10D89E00203139373984544153CB0148152A136C42
:10D8AE004461766964204C696F6E84532D3EC41FAB
:10D8BE0097152A149813DF1426136C81AA20492079
:10D8CE0060BD12B031317E1034842F4D4FC4205ABA
:10D8DE00152A1395205013AB12CF136C81AF20680D
:10D8EE00152A206F147F1471136C834D4FC4207B47
:10D8FE00152A206F1471136C852A2F4D4FC4208961
:10D90E00152A139512A713AB12CF136C822AAF20D0
:10D91E0097152A209F147F1471136C854D2F4D4F30
:10D92E00C420AB152A139515A713BE12CF13AB1433
:10D93E007F139512CF13AB136C834142D320BA15CC
:10D94E002A149813DF109100041426136C8444419A
:10D95E0042D320D8152A149813DF10910004143FD7
:10D96E00136C835553C520EC156401408450524509
:10D97E00D6210115640142842B4255C6210B152A6E
:10D98E0010598413F6149815E0177A1091000614A6
:10D99E007115D41498211214D5176E136C86555028
:10D9AE00444154C52116152A211214D514D51049F7
:10D9BE0080001318211214D514F5136C8D454D509B
:10D9CE0054592D425546464552D3213C152A15D45D
:10D9DE0015E01460176E1C01136C834452B0215B6A
:10D9EE00152A15A7169A14F5136C834452B1217992
:10D9FE00152A104907D0169A14F5136C864255460F
:10DA0E004645D22189152A210714D514981395213C
:10DA1E001D1091FFFC210714F513BE14D513DF1052
:10DA2E0091001413BE172213BE14D510497FFF1395
:10DA3E000715A723A813BE14F513BE211214F51350
:10DA4E00AB1722136C85424C4F43CB219B152A16E4
:10DA5E009A14D513F61395211214D5149814D513C0
:10DA6E00BE176E149813F610910034211D13CC10AE
:10DA7E00910014147113BE21A4149813BE15AF2374
:10DA8E00A815B7176E149814D513BE176E149813E5
:10DA9E00F613CC1091FFD61498211214F513AB1473
:10DAAE00711722136C86284C494E45A921E4152A7C
:10DABE00139510594015EC209F13AB15F8205E13EB
:10DACE00F621EC13F6105940136C852E4C494EC5B9
:10DADE002244152A224D1A6C1A39136C874D455360
:10DAEE00534147C52269152A164214D51091001BC1
:10DAFE00180510910015105904169A14D515F82012
:10DB0E007F176E22711085000D1A9F0665727220A6
:10DB1E002320263F136C844C4F41C4227B152A16BA
:10DB2E007014D51395167914D5139515A716791467
:10DB3E00F515F8205E167014F51E9213AB167914B7
:10DB4E00F513AB167014F5136CC32D2DBE22B5153F
:10DB5E002A191E15A7167914F515F8167014D51472
:10DB6E0060208F176E167014A6136CD7E0DFE1F6E7
:10DB7E008018C40227F9B78019DEF6E736D6E0DE44
:10DB8E00E139D7E0DFE1F68018C40127F9B6801934
:10DB9E00847FDEF6E737D6E0DEE139B68018840101
:10DBAE002705B68019860139860D8DBF860A8DBB75
:10DBBE00867FDEF6E6335A2BEE378DAF3320F785B0
:10DBCE003F444953C322E823687E10348B424C4FA6
:10DBDE00434B5F57524954C5235E237B7E10348AD4
:10DBEE00424C4F434B5F524541C4236B238D7E10F5
:10DBFE0034824CCF237E156432108248C92390158F
:10DC0E00647BFF83522FD72399152A139515EC2089
:10DC1E005E239513F61498239E17A41091000F1AE5
:10DC2E009F082052616E6765203B1F4C13AB10910D
:10DC3E000004147F15EC1273136CC1A723A2152ACE
:10DC4E001D3C13CC15A718A914711E57136C8646CC
:10DC5E004F524745D423D9152A16B614D516A814F3
:10DC6E00D5176E10591818A923DD1498164E14D511
:10DC7E00178610591518A9149815A7160617A4106B
:10DC8E00591518A91498186D165714F5185014D55F
:10DC9E0016A814D514F5136C84424143CB23ED150D
:10DCAE002A1731176E174D136CC542454749CE24BE
:10DCBE0037152A18C3173115AF136CC5454E444995
:10DCCE00C62448152A18C315B718F0173114601753
:10DCDE006E147F14F5136CC4544845CE245A152A7D
:10DCEE002462136CC244CF2476152A1937110417F7
:10DCFE003115BF136CC44C4F4FD02483152A15BF5A
:10DD0E0018F0193710BF243E136CC52B4C4F4FD053
:10DD1E002494152A15BF18F0193710D0243E136C11
:10DD2E00C5554E5449CC24A9152A15AF18F01937EC
:10DD3E001091243E136CC3454EC424BF152A24C72C
:10DD4E00136CC541474149CE24D5152A15AF18F09D
:10DD5E0019371085243E136CC65245504541D424C4
:10DD6E00E1152A1395139524E913AB13AB15B717C9
:10DD7E006E2462136CC249C624F7152A1937109106
:10DD8E00173115A7174D15B7136CC4454C53C52540
:10DD9E0014152A15B718F019371085173115A7174E
:10DDAE004D147F15B7246215B7136CC55748494CEF
:10DDBE00C52529152A25191722136C865350414360
:10DDCE0045D3254A152A15A717EC18051091000CF6
:10DDDE0015A7110417C610BFFFFC136C823CA325B8
:10DDEE005A152A1C3916FE14F5136C8223BE257B98
:10DDFE00152A1471147116FE14D51C391460176E81
:10DE0E00136C84534947CE258A152A17B213DF1097
:10DE1E0091000710592D1C21136C81A325A1152AE1
:10DE2E0016CD14D520C217B21059091460178610DA
:10DE3E0091000710590713F610593013F61C2113D1
:10DE4E006C8223D325B9152A25BD146014601318CE
:10DE5E0013CC1091FFF4136C822ED225E0152A13E9
:10DE6E0095205013AB260E136C83442ED225F71536
:10DE7E002A1395147F146020F3258025E525A82507
:10DE8E008F13AB1460176E25631A39136C8244AE70
:10DE9E002608152A15A7260E17C6136C81AE262C3A
:10DEAE00152A20502631136C81BF263B152A14D516
:10DEBE00263F136C844C4953D42647152A199512C4
:10DECE00631498168D14F51A9F065343522023207F
:10DEDE00263F10591015A711041263112115BF25E5
:10DEEE00FC17C61121168D14D5227110BFFFEC122E
:10DEFE0063136C85494E4445D82653152A12631771
:10DF0E0015147F11041263112115BF25FC17C615B8
:10DF1E00A711212271125510910004138110BFFF19
:10DF2E00E6136C8554524941C42692152A15BF201A
:10DF3E007F15BF205E15BF146013F6147F110412F7
:10DF4E00631121265A125510910004138110BFFF40
:10DF5E00F0126310590F22851263136C85564C49CB
:10DF6E0053D426C2152A105980168314F516A814F8
:10DF7E00D514D5168314D5170C14D5105920176E39
:10DF8E0017A41091000A126315A7168314F514989E
:10DF9E001DA717C617C61882185014D5149813CC7F
:10DFAE00125513181091FFCD1471136C844E4F4FF0
:10DFBE00D026FB103400000000000000000000001E
:10DFCE000000000000000000000000000000000043
:10DFDE0000FEE2006E00FEE2066E00860D8D670109
:10DFEE00860A8D628D63815326FA8D5D81392725D0
:10DFFE00813126F07FE20A8D2D8002B7E20B8D185B
:10E00E008D247AE20B2705A7000820F47CE20A276C
:10E01E00D3863F8D317EE0E38D0CB7E20C8D07B7D2
:10E02E00E20DFEE20C398D5348484848168D4C1BC4
:10E03E0016FBE20AF7E20A3944444444840F8B305B
:10E04E00813923028B077EE1D17EE1AC8DF808A6E3
:10E05E0000810426F7398DC0CEE19D8DF2CEE20C03
:10E06E008D37FEE20C8D34FFE20C8DDD812026E82B
:10E07E008DB409A700A10027DF20968DCC80302B10
:10E08E009481092F0A81112B8C81162E88800739D5
:10E09E00A6008DA4A6000820A38DF58DF386202062
:10E0AE00A58EE242BFE2088603B780180101018601
:10E0BE0015B780188EE242CEE19D8D938D8B168D15
:10E0CE00DCC14C26037EE00AC14D278AC1522720AF
:10E0DE00C150273AC14726DCBEE2083B01010101CF
:10E0EE0001010101BFE208306D0626026A056A06CB
:10E0FE00FEE208088DA58DA38DA18D9D8D9BCEE290
:10E10E00088D9620AF0D0A53310401010101FEE284
:10E11E0002FFE20FB6E205B0E210F6E204F2E20F01
:10E12E00260481102502860F8B04B7E2118003B7F7
:10E13E00E20ECEE134BDE07E5FCEE2118D25CEE261
:10E14E000F8D208D1EFEE20F8D197AE20E26F9FF3D
:10E15E00E20F5337308D0C33FEE20F09BCE204267A
:10E16E00B320A0EB007EE0BF0101010101010D0A09
:10E17E002A0401010101FFE212390101018DF7B6F6
:10E18E0080184724FAB68019847F817F27F18D127B
:10E19E003901010101010101010101010101010129
:10E1AE00010136B68018474724F932B7801939F67F
:10E1BE00801857398DF924FCF68019398DF15724C2
:10E1CE00FB847FB7801939000000000000000000BA
:10E1DE0000FFFFFFFFFFFFFFFFFFFFFFFFFFFFFF40
:10E1EE00FFFFFFFFFFFFFFFFFFFFFFFFFFFFFFFF31
:10E1FE00FFFFFFFFFFFFFFFFFFFFFFFFFFFFFFFF21
:10E20E00FFFFFFFFFFFFFFFFFFFFFFFFFFFFFFFF10
:10E21E00FFFFFFFFFFFFFFFFFF0000FFFFFFFFFFFE
:10E22E00FFFFFFFFFFFFFFFFFFFFFFFFFFFFFFFFF0
:10E23E00FFFFFFFFFFFFFFFFFFFFFFFFFFFFFFFFE0
:10E24E00FFFFFFFFFFFFFFFFFFFFFFFFFFFFFFFFD0
:10E25E00FFFFFFFFFFFFFFFFFFFFFFFFFFFFFFFFC0
:10E7DE00FF7EE97EFEA0006E00FEA0066E00FEA08B
:10E7EE000A6E0042EA1943EA5744EA0E47EA284CF9
:10E7FE00E8D34DE9204EEA3A50EB0552EA5F53EA70
:10E80E000154EA5355EA1445ED0856EA20A078EB78
:10E81E0079EBA320037EEBE17EEBE58D0CB7A03EFA
:10E82E008D07B7A03FFEA03E398D53484848481685
:10E83E008D4C1B16FBA03CF7A03C39444444448449
:10E84E000F8B30813923028B077EE95C7EE9698D5F
:10E85E00F808A600810426F7398D17CEECB18DF29B
:10E86E008DB9FFA0028D0BCEECBC8DE68DADFFA059
:10E87E000439FFA03ECEEC898DD8FEA03E398DCC5A
:10E88E0080302B6A81092F0A81112B6281162E5E30
:10E89E00800739A6008DA4A6000820A38DF58DF360
:10E8AE00862020A586118DA1B6A0448A40B7801877
:10E8BE007CA0168D9720037EE9A7815326F58D8CBB
:10E8CE008139272A813126EB7FA03CBDE858800292
:10E8DE00B7A03DBDE84ABDE8587AA03D2709A7007C
:10E8EE00A10026060820EF5C27C9863F8D3F7EE9F2
:10E8FE00BDBDE84A8DAAFEA03E8DA3098D3C810ABE
:10E90E002712815E2711BDE8AFBDE85AA700A1000E
:10E91E0026D820E8082005860A8D1209FFA03ECED3
:10E92E00EC81BDE881CEA03EBDE8CB20C937F68094
:10E93E0018575724F9B780193339B680184724FA77
:10E94E00B68019847F817F27F17DA01627DF398E4F
:10E95E00E83BCEA00832A700088CA01626F76F0061
:10E96E00088CA08026F886D0B7A0798603B78018C9
:10E97E008611B7A044B78018BEA008BDE8A120023A
:10E98E0020B8CEEC90BDE881CEE9EEFFA006BEA089
:10E99E0008B6A044B780187FA016CEEC7FBDE881E4
:10E9AE008D981620022086BDE8CFCEE812E1002712
:10E9BE000A0808088CE83C26F420D3EE016E00BF4E
:10E9CE00A008BDE8A186428DDCBDE8CF86028D6E23
:10E9DE00205E8DAC81312798861520967EE84A867A
:10E9EE00018D5B20568DF54F20F7BDE8A1860220E4
:10E9FE00F08DE986048D4720F18DE186FF8D3F3045
:10EA0E00B6A03EA705B6A03FA7063BCE00017FA04D
:10EA1E0043FFA01AFEA008EE06FFA017A600B7A09F
:10EA2E00197EEBCE8DB620E67CA043CE000120E110
:10EA3E00BDE8A1CEEC9BBDE8818D7B7EE9BDBFA07C
:10EA4E0040B7A03CCEA01CB6A03CAE00272D7DA0AA
:10EA5E004227364D2B21A61036B6A03C2737810112
:10EA6E0027418102274908088CA02C26DA4F7DA069
:10EA7E003C2A014CB7A042BEA04039810426E7BE15
:10EA8E00A03EAF007AA03C20DD4D2ACD3432A71037
:10EA9E00863F3620D1A600B1A03E26CAE601F1A0DF
:10EAAE003F26C36F006F0120BD7EE8CD7EE8CBBE52
:10EABE00A0408DF820B2BDE8A1FEA008088DEA8D19
:10EACE00E88DE68DE78DE5CEA0088DE0390D0A00C4
:10EADE00000000533104BDE8888612BDE878C619DF
:10EAEE004FBDE8785A26F9FEA002FFA040B6A00559
:10EAFE00B0A041F6A004F2A04026048110250286A3
:10EB0E000F8B04B7A03D8003B7A03CCEEAFCBDE856
:10EB1E00815FCEA03D8D2ECEA0408D298D27FEA0EB
:10EB2E00408D227AA03C26F9FFA0405337308D1538
:10EB3E0033FEA04009BCA00426B3BDE8A1CEEC7400
:10EB4E00BDE8812032EB007EE8C2BFA0088603BD7F
:10EB5E00EA6D306D0626026A056A06EE05BCA01740
:10EB6E002718A600813F260C306C0626026C05FE87
:10EB7E00A00C6E00BDEAE57EE9BDB6A019A7007D2A
:10EB8E00A043270F7FA04386FFBDEA6D7FA0177FAE
:10EB9E00A0183BBDEAE5FEA01A09FFA01A27D8B6B9
:10EBAE00A019B7A00E8D704D2A3532348A10067E0C
:10EBBE00A00E86022029FEA017A60108082B128D92
:10EBCE0016FFA017A600B7A019863FA700BEA00883
:10EBDE003B094C26FC20EA4D2704084A26FC39FE48
:10EBEE00A017E600C16E271AC17E271DC1AD2712E0
:10EBFE00C1BD2715C13B2715C1392716C18D27B6B3
:10EC0E0020BDA60130EE0320B6EE0120B430EE0C8E
:10EC1E0020AF30EE0720AA1644444444CEEC648D57
:10EC2E00B6A600260F8602C18C2708C1CE2704C1C6
:10EC3E008E26014C390101820101010203000202FC
:10EC4E000300020203533930333030303046430470
:10EC5E00130A0D14000000002A040D0A0000000023
:10EC6E00044D494B42554720322E30044343204237
:10EC7E0020204120202058202020205020202020FD
:10EC8E0053044245472041444452203F04454E44DC
:10EC9E002041444452203F0445584F525441504560
:10ECAE0020342E330443204C204420533A20044673
:10ECBE00494C452049443A2004535441525453542C
:10ECCE004F502050414745533A2004535045454438
:10ECDE003A2004BDE8A17EE8818D087EE9A7863F33
:10ECEE00BDE878CE1B26FFA049CEECC78DE5CEEC55
:10ECFE00FA8DE0BDE85881202605CE0B0D2022812D
:10ED0E00162605CE0D11201981122605CE121820B9
:10ED1E001081042605CE35502007810826C0CE1B53
:10ED2E0026FFA049CEECD48DAABDE87B815327BE29
:10ED3E00B7A04BCEECDE8D9BBDE84AFFA045BDE8EB
:10ED4E00A1B6A04B81442611CEECE88D89BDE84AD0
:10ED5E00FFA047BDE8A17EEF3A81432709814C27EA
:10ED6E00097EED0D20048601200286E7B7A04B7FB9
:10ED7E00A04C8639B7A04DBDEF7E8D5E27228D54F7
:10ED8E00271EC120270AC11026F48D15271220EE4A
:10ED9E007DA053270B2B04862D2002862BBDE878F1
:10EDAE00398D2EF7A04E7FA04FFEA04E8D23274902
:10EDBE00BDA04B087CA04F26F37AA0538D138D1166
:10EDCE00B6A051BAA05226048647200286427EEF94
:10EDDE007B7EEF72202486588DF48D1E271BC10872
:10EDEE0026F88DEDF1A04526ED8DE6F1A04626E63E
:10EDFE0086488DDA8DDBF7A053397FA04E7FA05069
:10EE0E0078A05079A04E8D2427EFB6A04EF6A050D4
:10EE1E00818926ECC1AF26E87FA0517FA052C602A1
:10EE2E00F7A0508D0727D278A05024F75F5A271FDE
:10EE3E008D4325F95A27188D3C24F9F6A0495A27F7
:10EE4E000E8D3225F95A27078D2B24F97CA050B64A
:10EE5E00A05046468480B8A051F6A05258492404CA
:10EE6E008880C805B7A051F7A052F6A050BDEF7824
:10EE7E00847F811B397EEF6C368DD9320D49200689
:10EE8E0032368DD03248C60ABDEF6F37F6A04A5AD9
:10EE9E0026FD335924F2364826E631398D2E8D2C37
:10EEAE0086898D2886AF8D247FA0517FA052398D03
:10EEBE001B8D198DE786088D13B6A0458D0EB6A055
:10EECE00468D09B6A048B0A0474C8D007EEF758DDB
:10EEDE00CB86208DF720F58DC386108DEFB6A04E14
:10EEEE008DEA7FA04FFEA04EA6008DE0087CA04FBD
:10EEFE0026F68D0786448D544F20D1B6A052B7A06A
:10EF0E004FB6A0518DC6B6A04F20C18D458DA0B66F
:10EF1E00A047B7A04E7AA04E7CA04E8DBAB68019EF
:10EF2E00847F811B2708F6A048F1A04E26EA8D9F0C
:10EF3E00397F80058604B78004B78005397EEF845B
:10EF4E007EEF917EEE4D7EEEA77EEF897EEF8D7E7B
:10EF5E00EF607EEF60B680044639B6801939B7800F
:10EF6E001939F780043937C60837305F58492404F9
:10EF7E00EB0189006A0026F431313934306F004DCF
:10EF8E002A03406C005D2A03506C008DD930660058
:10EF9E00240440508200313936A6002B29368608CB
:10EFAE003630A602A101241C58492404AB012003CB
:10EFBE00A0015C6A0026F10D594D2A045AAB010AD4
:10EFCE00313131393131310B39E803E80DE808E9D7
:10EFDE007E8EFEFFBDF867CE0000FFFF30FFFF37CD
:10EFEE00FFFF358653B7FF397FFF3B7FFF3C7FFF27
:10EFFE003DFFFF3EBFFF40FFFF4286C0B7FF44CE3E
:10F00E00F742BDF61FCE55AAC66486058B0518813C
:10F01E0055271F816E271481102625CEFFFFEC0188
:10F02E008C00002714CEF7EA4F201CCEF7F3860192
:10F03E002015CEF7FC8603200ECEF8058604200799
:10F04E00BDF62DCEF7E04FB7FF3BBDF61FCEF75DF9
:10F05E00BDF61FBDF672CEFF20BDF6B9BDF6C34D8F
:10F06E0027EB814426037EF0D3814726037EF224CC
:10F07E00815326037EF263814C26037EF2D78150A4
:10F08E0026037EF3F2815226037EF5348148260351
:10F09E007EF0CACEF77ABDF61F20B2CEF7A4BDF62B
:10F0AE001F7EF07C08BDF6B9BDF6CE5D2619BDF605
:10F0BE00B9A60026DEB6FF318B80B7FF33B6FF3020
:10F0CE008900B7FF322042B6FF46B7FF31B6FF4583
:10F0DE00B7FF30BDF6B9A600812C27154D26B4B664
:10F0EE00FF318B80B7FF33B6FF308900B7FF322078
:10F0FE001808BDF6B9BDF6CEBDF6B95D27956D0003
:10F10E002691FEFF4508FFFF32B6FF3184F0B7FFB0
:10F11E0048B6FF30B7FF477FFF348D2DBDF87F26F1
:10F12E0016B6FF34810225F2B6FF33B7FF31B6FFB4
:10F13E0032B7FF307EF07CB6FF48B7FF31B6FF47DF
:10F14E00B7FF30BDF8747EF07CB6FF47F6FF48BDC2
:10F15E00F62ACEF782BDF61FCEFF20FFFF49C6105E
:10F16E008D295A26FBCEF785BDF61FCEFF20C61081
:10F17E00A6000881202509817F2405BDF88520057C
:10F18E00862EBDF8855A26E87EF6688620BDF8855F
:10F19E00B6FF34262EB6FF30B1FF472608B6FF3134
:10F1AE00B1FF4827198620BDF885BDF885FEFF49B9
:10F1BE00A70008FFFF49FEFF4708FFFF47398601FA
:10F1CE00B7FF34B6FF34810126DBFEFF47A60008E9
:10F1DE00FFFF47FEFF49A70008FFFF49BDF62DB60A
:10F1EE00FF32B1FF47260DB6FF33B1FF4826058625
:10F1FE0002B7FF343908BDF6B9BDF6CEA600270317
:10F20E007EF0C25D2706FEFF45FFFF42B6FF40BA05
:10F21E00FF412703BEFF40B6FF4336B6FF4236B668
:10F22E00FF3F36B6FF3E36B6FF3C36B6FF3D36B62E
:10F23E00FF44363B08BDF6B9BDF6CEBDF6B96D003E
:10F24E0026635D2706FEFF45FFFF37B6FF37F6FF45
:10F25E0038BDF62ACEF785BDF61FFEFF37A600BDD8
:10F26E00F62D8620BDF885BDF672CEFF20BDF6B90F
:10F27E00A6002609FEFF3708FFFF3720CE812D2678
:10F28E0009FEFF3709FFFF3720C1812E26037EF0CE
:10F29E007CBDF6CE5D270EFEFF37B6FF46A70008F3
:10F2AE00FFFF3720A67EF0C208BDF6B9BDF6CEBD73
:10F2BE00F6B96D0026EFBDF874BDF6C38153270C69
:10F2CE00813A270F810D27EE810A27EABDF87420B7
:10F2DE00F32072BDF642B7FF4B16BDF642B7FF479D
:10F2EE00BBFF4BB7FF4BBDF642B7FF48BBFF4BB75B
:10F2FE00FF4BB6FF48BBFF46B7FF48B6FF47B9FF07
:10F30E0045B7FF47FEFF47BDF642B7FF3ABBFF4B7F
:10F31E00B7FF4B5D2716BDF64236BBFF4BB7FF4B13
:10F32E00327DFF3A2603A700085A26EABDF642BBF5
:10F33E00FF4B26087DFF3A27937EF07CCEF760BD0B
:10F34E00F61F7EF07CBDF874B7FF3ABDF64216B7D5
:10F35E00FF4BBDF642B7FF47BBFF4BB7FF4BBDF6AA
:10F36E0042B7FF48BBFF4BB7FF4BB6FF48BBFF464C
:10F37E00B7FF48B6FF47B9FF45B7FF47FEFF47C087
:10F38E0003271BBDF64236BBFF4BB7FF4BB6FF3A0A
:10F39E008131260632A700082001325A26E5BDF635
:10F3AE0042BBFF4B81FF2612B6FF3A8137271181F0
:10F3BE0038270D813927097EF2FBCEF76DBDF61F7A
:10F3CE007EF07C08A600BDF6C38149270481532632
:10F3DE000408B7FF39BDF6B9BDF6CE5D2726B6FFD8
:10F3EE0045B7FF49B6FF46B7FF4ABDF6B9A600813D
:10F3FE002C261108BDF6B9BDF6CE5D2707BDF6B9B0
:10F40E006D0027037EF0C2FEFF4508FFFF45B6FFE5
:10F41E0046B0FF4AB7FF46B6FF45B2FF49B7FF45B4
:10F42E00FEFF498D21B6FF45BAFF4626F6B6FF39D7
:10F43E0081492609CEF789BDF61F7EF07CCEF7975F
:10F44E00BDF61F7EF07CC6107DFF452607B6FF4633
:10F45E0011240116B6FF4610B7FF46B6FF458200CF
:10F46E00B7FF45B6FF398149264C863ABDF8851758
:10F47E00BDF62DF7FF4BFFFF49B6FF49BDF62DB682
:10F48E00FF49BBFF4BB7FF4BB6FF4ABDF62DB6FF8C
:10F49E004ABBFF4BB7FF4B4FBDF62DA60036BDF650
:10F4AE002D32BBFF4BB7FF4B085A26EFB6FF4B4032
:10F4BE00BDF62D7EF6688653BDF8858631BDF8857E
:10F4CE00178B03B7FF4BBDF62DFFFF49B6FF49BDA6
:10F4DE00F62DB6FF49BBFF4BB7FF4BB6FF4ABDF645
:10F4EE002DB6FF4ABBFF4BB7FF4BA60036BDF62D20
:10F4FE0032BBFF4BB7FF4B085A26EFB6FF4B43BD4F
:10F50E00F62D7EF66808BDF6B9BDF6C34D2606BDCE
:10F51E00F5CB7EF07CFFFF47CEF82F6D00277AA14A
:10F52E0000270808080808080820F0FFFF49FEFF1A
:10F53E004708BDF6B96D002660FEFF49EE04BDF624
:10F54E001F863DBDF885FEFF49E601EE02C101268C
:10F55E0007A600BDF62D200AA600BDF62DA601BDFC
:10F56E00F62D8620BDF885BDF672CEFF20BDF6B90C
:10F57E00A6002722BDF6CE5D271FFEFF49E601EE4F
:10F58E0002C1012607B6FF46A700200AB6FF45A70F
:10F59E0000B6FF46A7017EF07C7EF0C2CEF814BD09
:10F5AE00F61FB6FF3CBDF62DCEF817BDF61FB6FF03
:10F5BE003DBDF62DCEF81BBDF61FB6FF3EF6FF3F46
:10F5CE00BDF62ACEF81FBDF61FB6FF40F6FF41BDB1
:10F5DE00F62ACEF824BDF61FB6FF42F6FF43BDF65F
:10F5EE002ACEF829BDF61FB6FF44BDF62D7EF6686D
:10F5FE00A6002706BDF8850820F6398D011736447A
:10F60E004444448D0132840F8B30813A25028B079E
:10F61E007EF8854F8D04484848483716BDF874BDAE
:10F62E00F6C381302511813A250A8141250981478A
:10F63E002405800780301B3339860DBDF885860A78
:10F64E007EF885CEFF205FBDF874810D2737810AC5
:10F65E00273381082719817F2715812025E981808D
:10F66E0024E5C10F24E15CA70008BDF88520D85D14
:10F67E0027D55A098608BDF8858620BDF8858608E7
:10F68E00BDF88520C28DB26F0039A60081202603F9
:10F69E000820F73981612506817B24028BE0395FD2
:10F6AE007FFF457FFF46A6008DEA81302534813AE3
:10F6BE00250A8141252C814724288007803049491D
:10F6CE0049494979FF4679FF454979FF4679FF4512
:10F6DE004979FF4679FF454979FF4679FF45085C30
:10F6EE0020C439CEF80EBDF61F32B7FF4432B7FF35
:10F6FE003D32B7FF3C32B7FF3E32B7FF3F3233C029
:10F70E0001F7FF438200B7FF42BFFF40BDF5CB7E3E
:10F71E00F07C3B0D0A556E6976657273616C204DF7
:10F72E006F6E69746F7220363830300D0A005D20AE
:10F73E00004572726F7220696865780D0A00457215
:10F74E00726F7220737265630D0A004572726F726A
:10F75E000D0A00203A00203A20003A303030303086
:10F76E0030303146460D0A005339303330303030A8
:10F77E0046430D0A002445304430203A204D696B33
:10F78E006275670D0A2445323438203A205374616D
:10F79E00727420416464726573730D0A24453830A7
:10F7AE0030203A204D696B62756720322E300D0A7B
:10F7BE0000556E6B6E6F776E0D0A004D4336383006
:10F7CE00300D0A004D43363830310D0A00484436AC
:10F7DE003330310D0A004D42383836310D0A0053A0
:10F7EE0057490D0A00413D0020423D0020583D0082
:10F7FE002053503D002050433D00204343523D00D6
:10F80E004101FF3CF8574201FF3DF8595802FF3EB7
:10F81E00F85B5302FF40F85D5002FF40F860430171
:10F82E00FF44F863000000004100420058005350AE
:10F83E0000504300434352008603B78018010186EF
:10F84E0015B7801839B68018840127F9B680193992
:10F85E00B6801884013936B68018840227F932B77B
:10F86E0080193900000000000000000000000000B8
:10F87E00000000000000000000000000000000007A
:10F88E00000000000000000000000000000000006A
:10F89E00000000000000000000000000000000005A
:10F8AE00000000000000000000000000000000004A
:10FF5E00007EF00000000000007EF07C000000003B
:10FF6E00007EF88500000000007EF61F00000000F5
:10FF7E00007EF87400000000007EF87F0000000094
:10FF8E000000000000000000000000000000000063
:10FF9E000000000000000000000000000000000053
:10FFAE000000000000000000000000000000000043
:10FFBE000000000000000000000000000000000033
:10FFCE00000000000000000000F741F712F741F0BA
:10FFDE00000D0A4D455A3638303052414D202532EB
:10FFEE002E33664D487A0D0A00696E66006E616E9C
:02FFFE00000001
:020000040001F9
:10000000000E816F57C584F558C585F559C586F52D
:100010005AC587F587AF14D0010E816F84C501F5ED
:1000200085C502F586C503F587C504F569EC90F032
:1000300001C584F502C585F503C586F504C587F5B8
:10004000000E836F000E826FB8C571F5B9C572F5E9
:100050008151D8B40DD08151D8A404D0000E676F5F
:100060002B0E03D0000E676F2D0E666F66C581F5EF
:1000700084C501F585C502F586C503F587C504F578
:10008000A6EC8DF001040210D8A42CD005018151FA
:10009000D8B409D081C500F67107D8A07207000E48
:1000A000836F010E826F000E8225016E060E832182
:1000B000026EF70E036EFF0E046E30EC90F0FD0E34
:1000C0007127FF0E722355C512F556C513F5000EA4
:1000D000146E060E156E71C516F572C517F55AEC3D
:1000E0008FF0120084C501F585C502F586C503F5BC
:1000F00087C504F5A6EC8DF001500210D8A42CD0D1
:1001000005018151D8B409D081C500F67107D8A086
:100110007207000E836F010E826F000E8225016E42
:10012000060E8321026EFB0E036EFF0E046E30EC92
:1001300090F0FD0E7127FF0E722355C512F556C5BE
:1001400013F5000E146E060E156E71C516F572C508
:1001500017F55AEC8FF01200000E0501886F000EA3
:10016000896F800E8A6F3F0E8B6F000E706F000ECE
:100170006F6F84C501F585C502F586C503F587C592
:1001800004F5000E056E000E066E000E076E000EE2
:10019000086E15EC8FF0D8A00CD0BED073C588F5D2
:1001A00074C589F575C58AF576C58BF505016F4B64
:1001B000702B88C50FF589C510F58AC511F58BC55B
:1001C00012F5000E136E000E146E200E156E410E09
:1001D000166E5CEC86F00FC573F510C574F511C58D
:1001E00075F512C576F505017351845D016E745184
:1001F0008559026E75518659036E76518759046E82
:100200009AEC8FF004BECAD704500310021004E128
:10021000020E015CD8A0C2D773C528F574C529F5B4
:1002200075C52AF576C52BF584C52CF585C52DF544
:1002300086C52EF587C52FF53EEC8DF0D8A0AED73C
:1002400005018851845D016E89518559026E8A517C
:100250008659036E8B518759046E9AEC8FF004BE59
:1002600008D004500310021043E1020E015CD8B024
:100270003FD088C584F589C585F58AC586F58BC5C7
:1002800087F54AD088C528F589C529F58AC52AF594
:100290008BC52BF5000E2C6E000E2D6E200E2E6ED3
:1002A000410E2F6E78EC89F028C588F529C589F5AF
:1002B0002AC58AF52BC58BF505016F07D8A07007F5
:1002C0008851845D016E89518559026E8A51865923
:1002D000036E8B518759046E9AEC8FF004BEC9D718
:1002E00004500310021004E1020E015CD8A0C1D733
:1002F00084C528F585C529F586C52AF587C52BF55A
:1003000088C52CF589C52DF58AC52EF58BC52FF529
:100310003EEC8DF0D8A0B6D75BC569F569C56AF526
:100320000501BBBF05D0BAC562F5BBC563F504D0F6
:10033000000E636F060E626F62C56DF563C56EF5E4
:100340006D4B6E2B660E6A19D8A416D070AF0CD008
:10035000000E886F000E896F800E8A6F3F0E8B6FC4
:10036000000E706F000E6F6F670E6919D8B404D05D
:100370006F516D2770516E23000E786F000E776FEE
:1003800084C579F585C57AF586C57BF587C57CF585
:1003900088C573F589C574F58AC575F58BC576F57D
:1003A0007BD079C528F57AC529F57BC52AF57CC5AA
:1003B0002BF588C52CF589C52DF58AC52EF58BC57D
:1003C0002FF578EC89F028C541F529C542F52AC5F5
:1003D00043F52BC544F5CAEC8BF041C57DF542C50C
:1003E0007EF543C57FF544C580F57DC501F57EC525
:1003F00002F57FC503F580C504F50CEC8EF001C550
:100400006BF502C56CF579C528F57AC529F57BC56C
:100410002AF57CC52BF57DC513F57EC514F57FC582
:1004200015F580C516F588C50FF589C510F58AC57F
:1004300011F58BC512F55CEC86F00FC52CF510C5D7
:100440002DF511C52EF512C52FF5EBEC8FF028C553
:1004500079F529C57AF52AC57BF52BC57CF588C5C4
:1004600028F589C529F58AC52AF58BC52BF5000E17
:100470002C6E000E2D6E200E2E6E410E2F6E78EC1F
:1004800089F028C588F529C589F52AC58AF52BC5BF
:100490008BF50501774B782B6D51775D7851800A8C
:1004A0005C6E6E51800A5C58D8A07BD788C50FF56A
:1004B00089C510F58AC511F58BC512F5000E136EAE
:1004C000000E146EA00E156E400E166E5CEC86F0DB
:1004D0000FC57DF510C57EF511C57FF512C580F5F8
:1004E00079C528F57AC529F57BC52AF57CC52BF594
:1004F0007DC52CF57EC52DF57FC52EF580C52FF564
:100500003EEC8DF0D8B003D0000E050118D079C5AF
:1005100001F57AC502F57BC503F57CC504F57DC5FB
:1005200005F57EC506F57FC507F580C508F515EC10
:100530008FF0D8A00BD005016BB108D0000E7D6FF5
:10054000000E7E6F000E7F6F000E806F84C501F578
:1005500085C502F586C503F587C504F57DC505F596
:100560007EC506F57FC507F580C508F5F2EC87F076
:1005700001C579F502C57AF503C57BF504C57CF59F
:1005800079C528F57AC529F57BC52AF57CC52BF5F3
:10059000000E136E000E146E200E156E410E166EB8
:1005A00073C50FF574C510F575C511F576C512F54F
:1005B0005CEC86F00FC52CF510C52DF511C52EF598
:1005C00012C52FF53EEC8DF0D8A024D005016F4B5D
:1005D000702B73C50FF574C510F575C511F576C58B
:1005E00012F5000E136E000E146E200E156E410EE5
:1005F000166E5CEC86F00FC573F510C574F511C569
:1006000075F512C576F5660E05016A19D8A402D0F3
:100610006D4B6E2B73C588F574C589F575C58AF564
:1006200076C58BF56FC560F570C561F5000E0501E7
:10063000686F000E656F000E646F000E786F000E1D
:10064000776FCDD079C528F57AC529F57BC52AF510
:100650007CC52BF588C52CF589C52DF58AC52EF5E9
:100660008BC52FF578EC89F028C541F529C542F5F1
:100670002AC543F52BC544F5CAEC8BF041C57DF581
:1006800042C57EF543C57FF544C580F57DC501F5BE
:100690007EC502F57FC503F580C504F50CEC8EF030
:1006A00002BE06D0025013E10A0E015CD8B00FD092
:1006B0007DC501F57EC502F57FC503F580C504F54E
:1006C0000CEC8EF001C56BF502C56CF505D0000E83
:1006D00005016C6F090E6B6F05016851D8B461AFED
:1006E00020D0000E8225D96E060E8321DA6E2E0EE2
:1006F000DF6E824B832B7107D8A07207010E686FE3
:1007000010D0000E8225D96E060E8321DA6E300ECF
:10071000DF6E824B832B7107D8A072076407D8A0C5
:10072000650764516511D8A4ECD7000E8225D96EF7
:10073000060E8321DA6E6B51300FDF6E824B832BF6
:100740007107D8A0720779C528F57AC529F57BC548
:100750002AF57CC52BF57DC513F57EC514F57FC53F
:1007600015F580C516F588C50FF589C510F58AC53C
:1007700011F58BC512F55CEC86F00FC52CF510C594
:100780002DF511C52EF512C52FF5EBEC8FF028C510
:1007900079F529C57AF52AC57BF52BC57CF588C581
:1007A00028F589C529F58AC52AF58BC52BF5000ED4
:1007B0002C6E000E2D6E200E2E6E410E2F6E78ECDC
:1007C00089F028C588F529C589F52AC58AF52BC57C
:1007D0008BF505016007D8A06107774B782B6D5129
:1007E000775D7851800A5C6E6E51800A5C58D8B093
:1007F00008D083BF27D7835104E14B0E825DD8A078
:1008000021D7000E786F4F0E776F000E7725D96EC7
:10081000060E7821DA6EDF6A000E5C6E060E5D6EE3
:1008200082515C5E83515D5A77515C24016E785130
:100830005D20026E000E036E060E046E82C505F585
:1008400083C506F50EEC90F08251775D826F83517F
:100850007859836F8151D8B402D0010E01D0000EB7
:10086000776F786B8151D8B40BD08207D8A08307FB
:10087000000E8225D96E060E8321DA6E81C5DFF463
:100880007751715F7851725B55C512F556C513F5F6
:10089000000E8225146E060E8321156E71C516F5A5
:1008A00072C517F55AEC8FF01200080E0001B16FF7
:1008B00004012095C294CA9420912181CA8020937A
:1008C0002183CA820093BE92C692000E436F000E2F
:1008D000446F010E456F000E476F4691468B468F61
:1008E000080E0301D36F000ECE6F0C0ECF6F020EF9
:1008F000D06F020ED16FC40ED26F130E0201046FBF
:1009000004010097C696120E0201036F04010095C0
:10091000C69400910181C680150E0501A96FC60E0F
:10092000E82EFED7A92FFCD700F0C284150E0501D2
:10093000A96FC60EE82EFED7A92FFCD700F0000E37
:100940000401186F000EC16E000EC96E000E086F14
:10095000000EBF6E000EC76E000E106F000EC06E50
:10096000000EC86E0099000E0201056FBE88C69881
:100970000401009B000E0201066FBE8AC69A010E9A
:10098000D56FA00ED46FD189D18B0401009FC68E84
:10099000070E0201766F0401009DBE8CC69C260ED8
:1009A0000201076FD28F000E0501AF6F000EAE6F10
:1009B000AEC5BCF5AFC5BDF5BDC5C1F4BCC5BFF482
:1009C000BE986F0EAE25F66EB80EAF21F76EF86AC0
:1009D000000EF8220800F5C4C0F4BE88AE4BAF2B61
:1009E000400EAF5DD8A0E4D7000EAF6F000EAE6F23
:1009F000000EAE25BC6FE00EAF21BD6FBDC5C1F4CA
:100A0000BCC5BFF4BE98DF0EAE25F66EDF0EAF217B
:100A1000F76EF86A000EF8220800F5C4C0F4BE882C
:100A2000AE4BAF2B200EAF5DD8A0E2D7000E040175
:100A3000186F1969C968000E086F0969C768000E48
:100A4000106F1169C868000E136E240E146EF40E38
:100A5000156E410E166E4351016E4451026E4551A2
:100A6000036E046A000E9EEC8CF001C50FF502C502
:100A700010F503C511F504C512F55CEC86F00FC541
:100A800028F510C529F511C52AF512C52BF5000E5C
:100A90002C6E240E2D6E740E2E6E490E2F6E78EC79
:100AA00089F028C5AAF529C5ABF52AC5ACF52BC533
:100AB000ADF5DF0E0501A16FFF0EA26FAAC5A3F56C
:100AC000ABC5A4F5ACC5A5F5ADC5A6F596EC90F003
:100AD0001F0E0201636F1E0E646F000E656F1D0E08
:100AE000676F1C0E686F000E0001D56F000ED66F89
:100AF000350ED86F040ED96F4D0EDA6F7F0EDB6F97
:100B0000020EDC6F080EDD6F200EDE6F400EDF6F11
:100B1000800ED76F820ED66F010ED56F000ED66F86
:100B2000350ED86F040ED96F4D0EDA6F7F0EDB6F66
:100B3000020EDC6F040EDD6F200EDE6F400EDF6FE5
:100B4000800ED76F820ED66F020ED56F000ED66F55
:100B5000020ED86F030ED96F060EDA6F070EDB6F29
:100B6000020EDC6F040EDD6F100EDE6F400EDF6FC5
:100B7000800ED76F820ED66F030ED56F000ED66F24
:100B8000370ED86F2A0ED96F7F0EDA6F7F0EDB6FAC
:100B9000020EDC6F040EDD6F100EDE6F400EDF6F95
:100BA000000ED76F820ED66F040ED56F000ED66F73
:100BB0004C0ED86F350ED96F7F0EDA6F7F0EDB6F5C
:100BC000010EDC6F040EDD6F000EDE6F000EDF6FB6
:100BD000800ED76F840ED66F010E0201066F020ED3
:100BE000056F150E0301CF6F550E0401596FAA0E44
:100BF000596F5991080E5D6F000E5E6F000E5F6FAA
:100C0000550E596FAA0E596F5981D68EC294150E82
:100C10000501A96FC60EE82EFED7A92FFCD700F05C
:100C2000BE826A0EE82EFED700D0C28402D0D1C4A4
:100C3000BDF50001D4B9FBD7CFC4BCF5CEB014D0FC
:100C4000190E0501BC1905E1800EBD19D8B4D0C438
:100C5000C9F2040146ABFDD746BBFED746ABFED773
:100C60000001D785D795E5D7000EC86E180E05018F
:100C7000BC1908E1800EBD19D8B4D2A203D0B7C404
:100C8000C0F40CD0190EBC1908E1800EBD19D8B4FF
:100C9000D2A203D0C7C2C0F401D0C068040146ABE1
:100CA000FDD746BBFED746ABFED70001D785D7950B
:100CB000CEB4FED7C868BDD71250800B1B6E125041
:100CC0001224216E11BE21802150D8B40DD02128CC
:100CD000D8A408D0000E0F6E000E106E000E116E1C
:100CE000000E126E118E08D0000E0F6E000E106EE8
:100CF000000E116E000E126E1650800B1B1A16504D
:100D000016241C6E15BE1C801C50D8B40DD01C2897
:100D1000D8A408D0000E136E000E146E000E156ECF
:100D2000000E166E158E08D0000E136E000E146E97
:100D3000000E156E000E166E1C50D8B403D0215054
:100D4000D8A409D0000E0F6E000E106E000E116EAA
:100D5000000E126E120015500F02F3C426F5F4C4F3
:100D600027F526501D6E1E6A1F6A206A2750226EC4
:100D7000236A246A256A14501002F3C426F5F4C4C9
:100D800027F526501D26000E1E221F222022275046
:100D90002226000E23222422252213501102F3C4FE
:100DA00026F5F4C427F526501D26000E1E221F220C
:100DB000202227502226000E2322242225221FC56E
:100DC00020F51EC51FF51DC51EF51D6A1350100226
:100DD000F3C426F5F4C427F526501D2627501E22FD
:100DE000000E1F22000E202214500F02F3C426F51D
:100DF000F4C427F526501D2627501E22000E1F2260
:100E0000000E20221FC520F51EC51FF51DC51EF5AD
:100E10001D6A13500F02F3C426F5F4C427F52650BB
:100E20001D2627501E22000E1F22000E20221550C4
:100E30001002F3C426F5F4C427F5265022262750C5
:100E40002322000E2422000E252214501102F3C486
:100E500026F5F4C427F52650222627502322000E1B
:100E60002422000E252215501102F3C426F5F4C4E5
:100E700027F52650176E2750186E196A1A6A19C579
:100E80001AF518C519F517C518F5176A175022264F
:100E900018502322195024221A502522205022268D
:100EA000000E2322242225221FC520F51EC51FF572
:100EB0001DC51EF51D6A1C5021C517F5186A172699
:100EC000000E1822820E1724266EFF0E1820276EA1
:100ED0000FD0D890223623362436253620BE2280E5
:100EE000D8901D361E361F3620362606D8A0270677
:100EF00024AEEFD7000E1C6E20AE17D0FF0E1D14CF
:100F0000176EFF0E1E14186EFF0E1F14196E7F0E43
:100F100020141A6E1750181019101A10D8B403D0D4
:100F2000010E1C6E02D022B0FBD71C50D8B41FD0CB
:100F3000010E2226000E23222422252225A017D0CE
:100F400022C517F523C518F524C519F525C51AF5C9
:100F50001A341A3219321832173217C522F518C549
:100F600023F519C524F51AC525F5264A272A27BED3
:100F70000DD0275003E12628D8A008D0000E226EFD
:100F8000000E236E800E246E7F0E20D027BE05D06B
:100F900027500EE12604D8B00BD0000E226E000EB2
:100FA000236E000E246E000E256E000E1B6E0FD0F9
:100FB00026C521F5FF0E2216FF0E23167F0E2416DE
:100FC000000E251621B0248ED8902130256E1B509E
:100FD000251222C50FF523C510F524C511F525C529
:100FE00012F512000450800B0D6E045004240F6E95
:100FF00003BE0F800F50D8B40DD00F28D8A408D04E
:10100000000E016E000E026E000E036E000E046EE6
:10101000038E06D0000E016E000E026E000E036EEF
:10102000000E046E0850800B0E6E0D500E18D8A4E2
:101030000D8C085008240E6E07BE0E800E50D8B4DA
:101040000DD00E28D8A408D0000E056E000E066E36
:10105000000E076E000E086E078E06D0000E056E9D
:10106000000E066E000E076E000E086E0F500E5C2E
:10107000D8B022D00DAC02D0800E0D1A0FC510F5DD
:101080000EC50FF510C50EF501C510F505C501F526
:1010900010C505F502C510F506C502F510C506F523
:1010A00003C510F507C503F510C507F504C510F510
:1010B00008C504F510C508F5000E106E0F500EC5DA
:1010C00009F50A6A095E000E0A5A0ABE2CD00A50B7
:1010D00004E11A0E095CD8A026D0015002100310BA
:1010E0000410D8B402D0010E01D0000E106E000E14
:1010F000016E000E026E000E036E000E046E0EC531
:101100000FF515D010A005D0D89010300109106E41
:1011100002D0D890103201B0108E04340432033261
:10112000023201320F2A0E500F5CD8A0EBD70DBC53
:1011300028D00F50D8A409D0000E016E000E026E08
:10114000000E036E000E046E1200055001260650BC
:101150000222075003220850042204A071D010A0DC
:1011600005D0D89010300109106E02D0D8901032FE
:1011700001B0108E043404320332023201320F2ADD
:101180005FD00550015C06500258075003580450C8
:10119000800A096E0850800A0958D8B025D001503D
:1011A000055C096E025006580A6E035007580B6E14
:1011B000045008580C6EFF0E0924016EFF0E0A2021
:1011C000026EFF0E0B20036EFF0E0C20046E800ECD
:1011D0000D1A106C1050D8A40FD0010E0126000E6D
:1011E00002220322042208D00550015E0650025A52
:1011F0000750035A0850045A0150021003100410FB
:10120000D8A41CD01050D8A419D0000E016E000E26
:10121000026E000E036E000E046E1200D8900136AE
:1012200002360336043610BE018010A002D0D880EA
:1012300001D0D89010360F50D8A40F0603AEEED7C9
:10124000000E0E6E10AE0BD010C509F57F0E0916FC
:10125000D8B403D0010E0E6E02D001B0FBD70E50F1
:10126000D8B420D0010E0126000E0222032204224F
:1012700004A018D001C509F502C50AF503C50BF590
:1012800004C50CF50C340C320B320A32093209C594
:1012900001F50AC502F50BC503F50CC504F50F28C9
:1012A000D8A40F2A0F28D8B403D00F50D8A40DD03B
:1012B000000E016E000E026E000E036E000E046E34
:1012C0000F50D8A402D0000E0D6E0FA002D0038ED6
:1012D00001D0039ED8900F30046E0DBE048E01C560
:1012E00001F502C502F503C503F504C504F51200B6
:1012F0002B50800B386E2B502B243F6E2ABE3F8024
:101300003F50D8B40DD03F28D8A408D0000E286E86
:10131000000E296E000E2A6E000E2B6E2A8E06D04D
:10132000000E286E000E296E000E2A6E000E2B6E27
:101330002F50800B381A2F502F24406E2EBE408025
:101340004050D8B40DD04028D8A408D0000E2C6E40
:10135000000E2D6E000E2E6E000E2F6E2E8E06D0FD
:10136000000E2C6E000E2D6E000E2E6E000E2F6ED7
:101370002C502D102E102F10D8A417D0000E286E30
:10138000000E296E000E2A6E000E2B6E800E2A12A1
:101390007F0E2B1238502B1228C528F529C529F5A8
:1013A0002AC52AF52BC52BF512003F50D8A409D029
:1013B000000E286E000E296E000E2A6E000E2B6E97
:1013C000120040503FC530F5316A305E000E315A90
:1013D0007F0E3024396E000E31203A6E28C534F568
:1013E00029C535F52AC536F52BC537F5000E286E0B
:1013F000000E296E000E2A6E000E2B6E000E3B6E44
:10140000000E3C6E000E3D6E000E3E6E000E406EF5
:1014100028D04050D8B411D0D8903436353636362E
:101420003736D890283629362A362B363EBE2880C5
:10143000D8903B363C363D363E362C50345C2D50F1
:1014400035582E5036582F503758D8A009D03E8CDA
:101450002C50345E2D50355A2E50365A2F50375A54
:10146000402A190E4064D5D7345035103610371045
:10147000D8B411D03B800FD0D890283629362A36E0
:101480002B363EBE2880D8903B363C363D363E3625
:101490003906D8A03A062AAEEFD7000E406E3EAE0F
:1014A00017D0FF0E3B14306EFF0E3C14316EFF0E52
:1014B0003D14326E7F0E3E14336E305031103210B8
:1014C0003310D8B403D0010E406E02D028B0FBD741
:1014D0004050D8B41FD0010E2826000E29222A22FF
:1014E0002B222BA017D028C530F529C531F52AC5E8
:1014F00032F52BC533F533343332323231323032B8
:1015000030C528F531C529F532C52AF533C52BF587
:10151000394A3A2A3ABE10D03A5003E13928D8A0C5
:101520000BD0000E3A6E3968000E286E000E296E40
:10153000000E2A6E000E2B6E3ABE05D03A5011E115
:101540003904D8B00ED0000E3A6E000E396E000E7F
:10155000286E000E296E000E2A6E000E2B6E000EF5
:10156000386E39C53FF53FA002D02A8E01D02A9EA1
:10157000D8903F302B6E0ED78EC5D9F48FC5DAF4D4
:10158000DEC4F6F4DDC4F7F4000EF86E0800F55082
:10159000250AD8A4EAD08EC5D9F48FC5DAF4DE2A9C
:1015A000000EDD22000EB96F000EB86FB8C5BEF593
:1015B000BA69BB698EC507F58FC508F590C509F5F1
:1015C00091C50AF569EC8EF007C5B8F508C5B9F5FF
:1015D0000501B9AF05D0BE81B86DB91FD8B0B92B20
:1015E0008EC5D9F48FC5DAF4DEC4F6F4DDC4F7F4A1
:1015F000000EF86E0800F5502E0AD8A415D08EC53E
:10160000D9F48FC5DAF4DE2A000EDD228EC507F587
:101610008FC508F590C509F591C50AF569EC8EF0FE
:1016200007C5BAF508C5BBF58EC5D9F48FC5DAF480
:10163000DEC497F5DDC498F597C5F6F498C5F7F4C0
:10164000000EF86E0800F5C496F508D0974B982B5D
:1016500018D06C0E01D0000E966F13D00501965174
:101660005E6E5F6A5F50000AD8A4F5D75E504C0AE0
:10167000D8B4ECD72A0AD8B4ECD70A0AD8B4E6D73B
:10168000EAD797C5F6F498C5F7F4000EF86E08008F
:10169000F550660AD8B41AD060D090C5D9F491C577
:1016A000DAF4DFC45EF5040EDE26DFC45FF5000E5B
:1016B000DD225EC5D9F45FC5DAF4DEC492F5DEC47E
:1016C00093F5DEC494F5DEC495F50ED096515E6EAA
:1016D0005F6A5F50000AD8A407D05E504C0AD8B4A5
:1016E000DCD7200AD8B4D9D7010E97255E6E000E3C
:1016F00098215F6E8EC5D9F48FC5DAF45EC5DEF42D
:101700005FC5DDF418D08CC555F58DC556F592C56D
:1017100057F593C558F594C559F595C55AF597C52C
:10172000F6F498C5F7F4000EF86E0800F5C45BF502
:1017300000EC80F0120097C5F6F498C5F7F4000E9F
:10174000F86E0800F5505E6E5F6A5F50000AD8A41C
:1017500004D05E50660AD8B4D6D78EC5D9F48FC5EA
:10176000DAF4DE2A000EDD2212008EC5D9F48FC510
:10177000DAF4DEC4F6F4DDC4F7F4000EF86E080007
:10178000F550026E036A8CC504F58DC505F5C5ECF0
:101790008EF0E3D7B0C551F5B1C552F5B2C553F5DA
:1017A000B3C554F541C551F542C552F543C553F58E
:1017B00044C554F5810E456EFF0E466E51C547F582
:1017C00052C548F553C549F554C54AF5180E05D01C
:1017D000D8904A32493248324732E82EF9D747503A
:1017E00045244F6E000E4620506E50BE0FD0505014
:1017F00004E1170E4F5CD8A009D041C541F542C5A0
:1018000042F543C543F544C544F5120050BE5BD0D4
:101810004FC545F5FF0E466EFF0E476E7F0E486EB4
:10182000000E496E456601D007D04934493248322E
:1018300047324632452EF6D746C54BF547C54CF5DF
:1018400048C54DF549C54EF54B505114456E4C50A9
:101850005214466E4D505314476E4E505414486EF9
:101860004550461047104810D8B4C7D751C545F564
:1018700052C546F553C547F554C548F5200E05D069
:10188000D8904832473246324532E82EF9D7455093
:10189000D8B408D04B5051264C5052224D505322B0
:1018A0004E5054224B1C456E4C1C466E4D1C476ED0
:1018B0004E1C486E4550511646505216475053160E
:1018C0004850541632D051C545F552C546F553C55A
:1018D00047F554C548F5200E05D0D8904832473218
:1018E00046324532E82EF9D7456608D0000E516ED3
:1018F000000E526E000E536E000E16D0D89051346A
:10190000456E5234466E5334476E5434486E4550DB
:10191000461047104810D8B408D0000E516E000E83
:10192000526E800E536EBF0E546E51C541F552C5B6
:1019300042F553C543F554C544F51200096E0950EC
:10194000D8A404AE1AD001C505F502C506F503C535
:1019500007F504C508F5051E061E071E081E052A04
:10196000000E06220722082205C50BF506C50CF558
:1019700007C50DF508C50EF508D001C50BF502C564
:101980000CF503C50DF504C50EF50150021003104A
:101990000410D8A409D0000E016E000E026E000ED5
:1019A000036E000E046E1200960E0A6E06D00A2A0E
:1019B000D8900E320D320C320B32000E0B14056E25
:1019C000000E0C14066E000E0D14076EFE0E0E14A3
:1019D000086E0550061007100810D8B40DD0E7D7D0
:1019E0000A2A010E0B26000E0C220D220E22D89080
:1019F0000E320D320C320B32000E0B14056E000E3F
:101A00000C14066E000E0D14076EFF0E0E14086EF9
:101A10000550061007100810D8B407D0E1D70A0601
:101A2000D8900B360C360D360E360DBE03D0020E96
:101A30000A60F5D70AA00D9ED8900A320AC505F5AE
:101A4000066A076A086A05C508F5076A066A056A2C
:101A500005500B1206500C1207500D1208500E12B2
:101A60000950D8A404AE01D00E8E0BC501F50CC5EB
:101A700002F50DC503F50EC504F51200000E28147D
:101A8000306E000E2914316E800E2A14326E7F0ED5
:101A90002B14336E3050311032103310D8A408D0CC
:101AA000000E286E000E296E000E2A6E000E2B6EA0
:101AB000000E2C14306E000E2D14316E800E2E147C
:101AC000326E7F0E2F14336E3050311032103310BF
:101AD000D8A408D0000E2C6E000E2D6E000E2E6EB7
:101AE000000E2F6E2BAE09D0286C291ED8B0292AE3
:101AF0002A1ED8B02A2A800E2B562FAE09D02C6C65
:101B00002D1ED8B02D2A2E1ED8B02E2A800E2F566C
:101B1000000E281A000E291A000E2A1A800E2B1AFF
:101B2000000E2C1A000E2D1A000E2E1A800E2F1ADF
:101B30002C50285C2D5029582E502A582F502B58A5
:101B4000D8B002D0D8901200D8801200B4C50BF5DE
:101B5000B5C50CF5B6C50DF5B7C50EF501C50BF548
:101B600002C50CF503C50DF504C50EF50BC505F54D
:101B70000CC506F50DC507F50EC508F5180E05D000
:101B8000D8900832073206320532E82EF9D70550D0
:101B9000096E0A6A09500A10D8A419D0D8900B34DB
:101BA000056E0C34066E0D34076E0E34086E05504B
:101BB000061007100810D8A405D0000E026E020E01
:101BC000016E1200000E026E030E016E1200092853
:101BD0000A10D8A41CD00BC505F50CC506F50DC51B
:101BE00007F50EC508F5090ED890053606360736F6
:101BF0000836E82EF9D70550061007100810D8A4AB
:101C000002D0010E01D0000E016E026A1200000E19
:101C1000026E040E016E1200033404340A6E0A5080
:101C2000D8A409D0000E016E000E026E000E036EE5
:101C3000000E046E120001C505F502C506F503C5C8
:101C400007F504C508F5200E05D0D89008320732F4
:101C500006320532E82EF9D70550096E038EFF0EC5
:101C60000116FF0E0216FF0E0316000E0416960E46
:101C70000A5E0AAE0DD00A50800A970FD8A0D2D7BC
:101C8000D89004320332023201320A3EF9D70DD025
:101C90001F0E0A6407D0C6D7D89001360236033625
:101CA00004360A060A50D8A4F7D70950D8B408D089
:101CB000041E031E021E016C000E022203220422D7
:101CC00001C501F502C502F503C503F504C504F518
:101CD0001200000E0F6E000E0E6E07C5D9F408C577
:101CE000DAF4DEC4F6F4DDC4F7F4000EF86E080092
:101CF000F5502A0AD8A433D007C5D9F408C5DAF4B8
:101D0000DE2A000EDD2209C5D9F40AC5DAF4DFC4E3
:101D10000BF5020EDE26DFC40CF5000EDD220BC52E
:101D2000D9F40CC5DAF4DEC40EF5DDC40FF528D005
:101D30000EC501F50FC502F5000E046E0A0E036E06
:101D4000A9EC90F00D5001240E6E000E02200F6ED3
:101D500007C5D9F408C5DAF4DE2A000EDD2207C56E
:101D6000D9F408C5DAF4DEC4F6F4DDC4F7F4000EE5
:101D7000F86E0800F550D00F0D6E090E0D64D8D71F
:101D80000EC507F50FC508F5120004500510D8B4AC
:101D900004D004500510D8A404D00250BCEC90F03C
:101DA000120020EE0AF00450D9260550DA22DE5047
:101DB000DE10D8B416D020EE0AF00450D926055013
:101DC000DA2210EE03F00450E1260550E222DE5044
:101DD000E65CE650800A0A6EDE50800A0A58D8B0E7
:101DE000120020EE03F00450D9260550DA22DEC49A
:101DF00006F5DDC407F504C5D9F405C5DAF4DEC47B
:101E000008F5DDC409F506500824D96E07500920ED
:101E1000DA6E02C5DFF420EE03F00450D926055037
:101E2000DA22DE2A000EDD221200000E0114096EF5
:101E3000000E02140A6E800E03140B6E7F0E041443
:101E40000C6E09500A100B100C10D8A408D0000E0C
:101E5000016E000E026E000E036E000E046E000E88
:101E60000514096E000E06140A6E800E07140B6E20
:101E70007F0E08140C6E09500A100B100C10D8A419
:101E800008D0000E056E000E066E000E076E000EE6
:101E9000086E055001180AE10650021807E10750C4
:101EA000031804E108500418D8B402D0D8901200E6
:101EB000D8801200BEA10AD014C50BF515C50CF5CB
:101EC00012C50DF513C50EF54DEC90F017BE05D0FB
:101ED00016C51BF517C51CF504D0000E1C6E000EB0
:101EE0001B6E000E1A6E000E196E0CD0000E036EE3
:101EF000200E026E12C504F513C505F5C5EC8EF073
:101F0000194A1A2A1B50195C1A50800A186E1C5064
:101F1000800A1858D8A0EAD70501BEB1120014C52E
:101F20000BF515C50CF512C50DF513C50EF54DECE9
:101F300090F0120004BE07D00450031002101DE1FF
:101F40000104D8B01AD001C505F502C506F503C5D0
:101F500007F504C508F5051E061E071E081E052AFE
:101F6000000E06220722082205C501F506C502F566
:101F700007C503F508C504F5120001C501F502C542
:101F800002F503C503F504C504F512009BC59FF5D2
:101F90009CC5A0F50FD099C58CF59AC58DF59F0EFF
:101FA00005018E6F050E8F6F9DC590F59EC591F54D
:101FB000BCEC8AF09FC5F6F4A0C5F7F4000EF86EED
:101FC0000800F5500009D8A4E6D7000E05019A6F65
:101FD000000E996F1200000E2C1A000E2D1A000E22
:101FE0002E1A800E2F1A28C501F529C502F52AC51B
:101FF00003F52BC504F52CC505F52DC506F52EC535
:1020000007F52FC508F5F2EC87F001C528F502C5E4
:1020100029F503C52AF504C52BF5120003C509F5FA
:1020200004C50AF501C507F502C508F510D009C5B4
:10203000D9F40AC5DAF4DF500B6E094A0A2A07C53B
:10204000D9F408C5DAF40BC5DFF4074A082A0506F7
:10205000D8A006060528EBE10628D8B41200E7D779
:1020600003C505F504C506F501C507F502C508F564
:1020700005C5F6F406C5F7F4054A062A000EF86E03
:1020800007C5D9F408C5DAF4074A082A0800F5C4D8
:10209000DFF4DF50D8B41200EBD7000E116E000E43
:1020A000106E0BD00FC502F5036A0DC504F50EC501
:1020B00005F5C5EC8EF0104A112A10500B24D96E8C
:1020C00011500C20DA6EDF500F6E0F50D8B4120092
:1020D000E9D70150021003100410D8B408D0000E44
:1020E000011A000E021A000E031A800E041A01C50E
:1020F00001F502C502F503C503F504C504F5120098
:1021000001EE00F2500EEE6AE806FDE101EEB0F1DC
:102110000F0EEE6AE806FDE10401080E5D6F000E89
:102120005E6F000E5F6F000155EF84F0A30EA76F86
:10213000050EA86F000E996F000E9A6FA1C59BF552
:10214000A2C59CF5A70E9D6F050E9E6FC6EC8FF085
:10215000120001500302F3C405F5F4C406F5015062
:102160000402F350062602500302F350062605C56A
:1021700001F506C502F51200016EB7A2FED701C532
:06218000C9F2120011007B
:020000040020DA
:10000000FFFFFFFFFFFFFFFFFFFFFFFFFFFFFFFF00
:10001000FFFFFFFFFFFFFFFFFFFFFFFFFFFFFFFFF0
:10002000FFFFFFFFFFFFFFFFFFFFFFFFFFFFFFFFE0
:10003000FFFFFFFFFFFFFFFFFFFFFFFFFFFFFFFFD0
:020000040030CA
:100000008C2FFFF79FFFFFFFFFFFFFFFFFFFFFFFAB
:10001000FFFFFFFFFFFFFFFFFFFFFFFFFFFFFFFFF0
:03002000FFFFFFE0
:00000001FF
